{
  "_format": "hh-sol-artifact-1",
  "contractName": "MachoMara",
  "sourceName": "contracts/MarascanMatic.sol",
  "abi": [
    {
      "anonymous": false,
      "inputs": [
        {
          "indexed": true,
          "internalType": "address",
          "name": "contractAddress",
          "type": "address"
        }
      ],
      "name": "ApproveToken",
      "type": "event"
    },
    {
      "anonymous": false,
      "inputs": [
        {
          "indexed": true,
          "internalType": "address",
          "name": "newContract",
          "type": "address"
        }
      ],
      "name": "ChangedBadgeContract",
      "type": "event"
    },
    {
      "anonymous": false,
      "inputs": [
        {
          "indexed": true,
          "internalType": "address",
          "name": "newContract",
          "type": "address"
        }
      ],
      "name": "ChangedUSDCContract",
      "type": "event"
    },
    {
      "anonymous": false,
      "inputs": [
        {
          "components": [
            {
              "internalType": "address",
              "name": "donor",
              "type": "address"
            },
            {
              "internalType": "uint256",
              "name": "donationRequestId",
              "type": "uint256"
            },
            {
              "internalType": "uint256",
              "name": "amount",
              "type": "uint256"
            }
          ],
          "indexed": false,
          "internalType": "struct MachoMara.Donation",
          "name": "donation",
          "type": "tuple"
        }
      ],
      "name": "Disbursed",
      "type": "event"
    },
    {
      "anonymous": false,
      "inputs": [
        {
          "indexed": true,
          "internalType": "address",
          "name": "donor",
          "type": "address"
        },
        {
          "indexed": true,
          "internalType": "uint256",
          "name": "amount",
          "type": "uint256"
        },
        {
          "indexed": false,
          "internalType": "uint256",
          "name": "donationRequestId",
          "type": "uint256"
        },
        {
          "indexed": false,
          "internalType": "uint256",
          "name": "currentUndisbursedBalance",
          "type": "uint256"
        },
        {
          "components": [
            {
              "internalType": "address",
              "name": "beneficiaryAddresses",
              "type": "address"
            },
            {
              "internalType": "uint256",
              "name": "amountPerBeneficiary",
              "type": "uint256"
            }
          ],
          "indexed": false,
          "internalType": "struct MachoMara.BeneficiaryOutput[]",
          "name": "beneficiaries",
          "type": "tuple[]"
        }
      ],
      "name": "Donated",
      "type": "event"
    },
    {
      "anonymous": false,
      "inputs": [
        {
          "indexed": false,
          "internalType": "uint8",
          "name": "version",
          "type": "uint8"
        }
      ],
      "name": "Initialized",
      "type": "event"
    },
    {
      "anonymous": false,
      "inputs": [
        {
          "indexed": true,
          "internalType": "bytes32",
          "name": "role",
          "type": "bytes32"
        },
        {
          "indexed": true,
          "internalType": "bytes32",
          "name": "previousAdminRole",
          "type": "bytes32"
        },
        {
          "indexed": true,
          "internalType": "bytes32",
          "name": "newAdminRole",
          "type": "bytes32"
        }
      ],
      "name": "RoleAdminChanged",
      "type": "event"
    },
    {
      "anonymous": false,
      "inputs": [
        {
          "indexed": true,
          "internalType": "bytes32",
          "name": "role",
          "type": "bytes32"
        },
        {
          "indexed": true,
          "internalType": "address",
          "name": "account",
          "type": "address"
        },
        {
          "indexed": true,
          "internalType": "address",
          "name": "sender",
          "type": "address"
        }
      ],
      "name": "RoleGranted",
      "type": "event"
    },
    {
      "anonymous": false,
      "inputs": [
        {
          "indexed": true,
          "internalType": "bytes32",
          "name": "role",
          "type": "bytes32"
        },
        {
          "indexed": true,
          "internalType": "address",
          "name": "account",
          "type": "address"
        },
        {
          "indexed": true,
          "internalType": "address",
          "name": "sender",
          "type": "address"
        }
      ],
      "name": "RoleRevoked",
      "type": "event"
    },
    {
      "inputs": [],
      "name": "ADMIN_ROLE",
      "outputs": [
        {
          "internalType": "bytes32",
          "name": "",
          "type": "bytes32"
        }
      ],
      "stateMutability": "view",
      "type": "function"
    },
    {
      "inputs": [],
      "name": "BADGE",
      "outputs": [
        {
          "internalType": "address",
          "name": "",
          "type": "address"
        }
      ],
      "stateMutability": "view",
      "type": "function"
    },
    {
      "inputs": [],
      "name": "DEFAULT_ADMIN_ROLE",
      "outputs": [
        {
          "internalType": "bytes32",
          "name": "",
          "type": "bytes32"
        }
      ],
      "stateMutability": "view",
      "type": "function"
    },
    {
      "inputs": [],
      "name": "MASTER_WALLET",
      "outputs": [
        {
          "internalType": "address",
          "name": "",
          "type": "address"
        }
      ],
      "stateMutability": "view",
      "type": "function"
    },
    {
      "inputs": [
        {
          "internalType": "uint256",
          "name": "_donationRequestId",
          "type": "uint256"
        },
        {
          "components": [
            {
              "internalType": "address",
              "name": "beneficiaryAddresses",
              "type": "address"
            },
            {
              "internalType": "uint256",
              "name": "acresPerBeneficiary",
              "type": "uint256"
            }
          ],
          "internalType": "struct MachoMara.BeneficiaryInput[]",
          "name": "_donationDetails",
          "type": "tuple[]"
        },
        {
          "internalType": "uint256",
          "name": "totalNumberOfAcres",
          "type": "uint256"
        },
        {
          "internalType": "bytes32",
          "name": "secretKey",
          "type": "bytes32"
        },
        {
          "internalType": "bool",
          "name": "disburse",
          "type": "bool"
        }
      ],
      "name": "SwapExactMaticForTokens",
      "outputs": [],
      "stateMutability": "payable",
      "type": "function"
    },
    {
      "inputs": [],
      "name": "USDC",
      "outputs": [
        {
          "internalType": "address",
          "name": "",
          "type": "address"
        }
      ],
      "stateMutability": "view",
      "type": "function"
    },
    {
      "inputs": [],
      "name": "WMATIC",
      "outputs": [
        {
          "internalType": "address",
          "name": "",
          "type": "address"
        }
      ],
      "stateMutability": "view",
      "type": "function"
    },
    {
      "inputs": [
        {
          "internalType": "uint256",
          "name": "",
          "type": "uint256"
        }
      ],
      "name": "allDisbursedDonations",
      "outputs": [
        {
          "internalType": "address",
          "name": "donor",
          "type": "address"
        },
        {
          "internalType": "uint256",
          "name": "donationRequestId",
          "type": "uint256"
        },
        {
          "internalType": "uint256",
          "name": "amount",
          "type": "uint256"
        }
      ],
      "stateMutability": "view",
      "type": "function"
    },
    {
      "inputs": [
        {
          "internalType": "address",
          "name": "_tokenAddress",
          "type": "address"
        }
      ],
      "name": "approveTokenForDonation",
      "outputs": [],
      "stateMutability": "nonpayable",
      "type": "function"
    },
    {
      "inputs": [
        {
          "internalType": "address",
          "name": "",
          "type": "address"
        }
      ],
      "name": "approvedTokens",
      "outputs": [
        {
          "internalType": "bool",
          "name": "",
          "type": "bool"
        }
      ],
      "stateMutability": "view",
      "type": "function"
    },
    {
      "inputs": [
        {
          "internalType": "uint256",
          "name": "donationRequestId",
          "type": "uint256"
        }
      ],
      "name": "claimBadge",
      "outputs": [],
      "stateMutability": "nonpayable",
      "type": "function"
    },
    {
      "inputs": [
        {
          "internalType": "uint256",
          "name": "",
          "type": "uint256"
        }
      ],
      "name": "claimBadgesForDonors",
      "outputs": [
        {
          "internalType": "uint256",
          "name": "",
          "type": "uint256"
        }
      ],
      "stateMutability": "view",
      "type": "function"
    },
    {
      "inputs": [],
      "name": "disburseToken",
      "outputs": [],
      "stateMutability": "nonpayable",
      "type": "function"
    },
    {
      "inputs": [
        {
          "internalType": "uint256",
          "name": "_amount",
          "type": "uint256"
        },
        {
          "internalType": "uint256",
          "name": "_donationRequestId",
          "type": "uint256"
        },
        {
          "components": [
            {
              "internalType": "address",
              "name": "beneficiaryAddresses",
              "type": "address"
            },
            {
              "internalType": "uint256",
              "name": "acresPerBeneficiary",
              "type": "uint256"
            }
          ],
          "internalType": "struct MachoMara.BeneficiaryInput[]",
          "name": "_donationDetails",
          "type": "tuple[]"
        },
        {
          "internalType": "uint256",
          "name": "totalNumberOfAcres",
          "type": "uint256"
        },
        {
          "internalType": "bytes32",
          "name": "secretKey",
          "type": "bytes32"
        },
        {
          "internalType": "bool",
          "name": "disburse",
          "type": "bool"
        }
      ],
      "name": "donate",
      "outputs": [],
      "stateMutability": "nonpayable",
      "type": "function"
    },
    {
      "inputs": [
        {
          "internalType": "uint256",
          "name": "_amount",
          "type": "uint256"
        },
        {
          "internalType": "uint256",
          "name": "_donationRequestId",
          "type": "uint256"
        },
        {
          "components": [
            {
              "internalType": "address",
              "name": "beneficiaryAddresses",
              "type": "address"
            },
            {
              "internalType": "uint256",
              "name": "acresPerBeneficiary",
              "type": "uint256"
            }
          ],
          "internalType": "struct MachoMara.BeneficiaryInput[]",
          "name": "_donationDetails",
          "type": "tuple[]"
        },
        {
          "internalType": "uint256",
          "name": "totalNumberOfAcres",
          "type": "uint256"
        },
        {
          "internalType": "bool",
          "name": "disburse",
          "type": "bool"
        }
      ],
      "name": "donationFromHook",
      "outputs": [],
      "stateMutability": "nonpayable",
      "type": "function"
    },
    {
      "inputs": [],
      "name": "emergencyWithdraWMATIC",
      "outputs": [],
      "stateMutability": "nonpayable",
      "type": "function"
    },
    {
      "inputs": [
        {
          "internalType": "address",
          "name": "_tokenAddress",
          "type": "address"
        }
      ],
      "name": "emergencyWithdrawToken",
      "outputs": [],
      "stateMutability": "nonpayable",
      "type": "function"
    },
    {
      "inputs": [
        {
          "internalType": "bytes32",
          "name": "role",
          "type": "bytes32"
        }
      ],
      "name": "getRoleAdmin",
      "outputs": [
        {
          "internalType": "bytes32",
          "name": "",
          "type": "bytes32"
        }
      ],
      "stateMutability": "view",
      "type": "function"
    },
    {
      "inputs": [
        {
          "internalType": "bytes32",
          "name": "role",
          "type": "bytes32"
        },
        {
          "internalType": "address",
          "name": "account",
          "type": "address"
        }
      ],
      "name": "grantRole",
      "outputs": [],
      "stateMutability": "nonpayable",
      "type": "function"
    },
    {
      "inputs": [
        {
          "internalType": "bytes32",
          "name": "role",
          "type": "bytes32"
        },
        {
          "internalType": "address",
          "name": "account",
          "type": "address"
        }
      ],
      "name": "hasRole",
      "outputs": [
        {
          "internalType": "bool",
          "name": "",
          "type": "bool"
        }
      ],
      "stateMutability": "view",
      "type": "function"
    },
    {
      "inputs": [],
      "name": "initialize",
      "outputs": [],
      "stateMutability": "nonpayable",
      "type": "function"
    },
    {
      "inputs": [],
      "name": "minimumAmountToDisburse",
      "outputs": [
        {
          "internalType": "uint256",
          "name": "",
          "type": "uint256"
        }
      ],
      "stateMutability": "view",
      "type": "function"
    },
    {
      "inputs": [],
      "name": "poolFee",
      "outputs": [
        {
          "internalType": "uint24",
          "name": "",
          "type": "uint24"
        }
      ],
      "stateMutability": "view",
      "type": "function"
    },
    {
      "inputs": [],
      "name": "processingFeePercent",
      "outputs": [
        {
          "internalType": "uint256",
          "name": "",
          "type": "uint256"
        }
      ],
      "stateMutability": "view",
      "type": "function"
    },
    {
      "inputs": [
        {
          "internalType": "bytes32",
          "name": "role",
          "type": "bytes32"
        },
        {
          "internalType": "address",
          "name": "account",
          "type": "address"
        }
      ],
      "name": "renounceRole",
      "outputs": [],
      "stateMutability": "nonpayable",
      "type": "function"
    },
    {
      "inputs": [
        {
          "internalType": "bytes32",
          "name": "role",
          "type": "bytes32"
        },
        {
          "internalType": "address",
          "name": "account",
          "type": "address"
        }
      ],
      "name": "revokeRole",
      "outputs": [],
      "stateMutability": "nonpayable",
      "type": "function"
    },
    {
      "inputs": [
        {
          "internalType": "address",
          "name": "_tokenAddress",
          "type": "address"
        }
      ],
      "name": "setBadgeTokenContract",
      "outputs": [],
      "stateMutability": "nonpayable",
      "type": "function"
    },
    {
      "inputs": [
        {
          "internalType": "address",
          "name": "_address",
          "type": "address"
        }
      ],
      "name": "setMasterWallet",
      "outputs": [],
      "stateMutability": "nonpayable",
      "type": "function"
    },
    {
      "inputs": [
        {
          "internalType": "uint24",
          "name": "_fee",
          "type": "uint24"
        }
      ],
      "name": "setPoolFee",
      "outputs": [],
      "stateMutability": "nonpayable",
      "type": "function"
    },
    {
      "inputs": [
        {
          "internalType": "uint256",
          "name": "_fee",
          "type": "uint256"
        }
      ],
      "name": "setProcessingFee",
      "outputs": [],
      "stateMutability": "nonpayable",
      "type": "function"
    },
    {
      "inputs": [
        {
          "internalType": "bytes32",
          "name": "_secret",
          "type": "bytes32"
        }
      ],
      "name": "setSecretKey",
      "outputs": [],
      "stateMutability": "nonpayable",
      "type": "function"
    },
    {
      "inputs": [
        {
          "internalType": "address",
          "name": "_tokenAddress",
          "type": "address"
        }
      ],
      "name": "setUSDCTokenContract",
      "outputs": [],
      "stateMutability": "nonpayable",
      "type": "function"
    },
    {
      "inputs": [
        {
          "internalType": "bytes4",
          "name": "interfaceId",
          "type": "bytes4"
        }
      ],
      "name": "supportsInterface",
      "outputs": [
        {
          "internalType": "bool",
          "name": "",
          "type": "bool"
        }
      ],
      "stateMutability": "view",
      "type": "function"
    },
    {
      "inputs": [
        {
          "internalType": "uint256",
          "name": "amountIn",
          "type": "uint256"
        },
        {
          "internalType": "address",
          "name": "tokenIn",
          "type": "address"
        },
        {
          "components": [
            {
              "internalType": "address",
              "name": "beneficiaryAddresses",
              "type": "address"
            },
            {
              "internalType": "uint256",
              "name": "acresPerBeneficiary",
              "type": "uint256"
            }
          ],
          "internalType": "struct MachoMara.BeneficiaryInput[]",
          "name": "_donationDetails",
          "type": "tuple[]"
        },
        {
          "internalType": "uint256",
          "name": "_donationRequestId",
          "type": "uint256"
        },
        {
          "internalType": "uint256",
          "name": "totalNumberOfAcres",
          "type": "uint256"
        },
        {
          "internalType": "bytes32",
          "name": "secretKey",
          "type": "bytes32"
        }
      ],
      "name": "swapExactTokensForTokens",
      "outputs": [],
      "stateMutability": "nonpayable",
      "type": "function"
    },
    {
      "inputs": [],
      "name": "swapRouter",
      "outputs": [
        {
          "internalType": "contract ISwapRouter",
          "name": "",
          "type": "address"
        }
      ],
      "stateMutability": "view",
      "type": "function"
    },
    {
      "inputs": [],
      "name": "totalAmountDisbursed",
      "outputs": [
        {
          "internalType": "uint256",
          "name": "",
          "type": "uint256"
        }
      ],
      "stateMutability": "view",
      "type": "function"
    },
    {
      "inputs": [],
      "name": "unDisbursedAmount",
      "outputs": [
        {
          "internalType": "uint256",
          "name": "",
          "type": "uint256"
        }
      ],
      "stateMutability": "view",
      "type": "function"
    },
    {
      "inputs": [
        {
          "internalType": "uint256",
          "name": "",
          "type": "uint256"
        }
      ],
      "name": "unDisbursedDonations",
      "outputs": [
        {
          "internalType": "address",
          "name": "donor",
          "type": "address"
        },
        {
          "internalType": "uint256",
          "name": "donationRequestId",
          "type": "uint256"
        },
        {
          "internalType": "uint256",
          "name": "amount",
          "type": "uint256"
        }
      ],
      "stateMutability": "view",
      "type": "function"
    }
  ],
  "bytecode": "0x608060405234801561001057600080fd5b5061300e806100206000396000f3fe6080604052600436106102255760003560e01c80638129fc1c11610123578063a6c7bf8a116100ab578063d5d0c6f01161006f578063d5d0c6f014610685578063d60bb296146106a5578063e1555f20146106bb578063ed818726146106ce578063eead6fd8146106ee57610225565b8063a6c7bf8a146105c0578063ae1ac70a146105e0578063b0583c9414610600578063c31c9c0714610645578063d547741f1461066557610225565b806391d14854116100f257806391d148541461054b5780639409bf5c1461056b5780639461446d1461058b578063a217fddf14610489578063a515eeda146105ab57610225565b80638129fc1c146104d357806383fc6cf1146104e85780638623afef146104fe57806389a302711461052b57610225565b8063305c5310116101b15780636d1ea3fa116101755780636d1ea3fa1461043957806373dd250c1461046957806375b238fc146104895780637ddef29f1461049e5780637f49a932146104b357610225565b8063305c53101461039d57806336568abe146103b35780633c2c4b5e146103d35780634d95cad9146103f3578063656ad7231461041957610225565b80631d527d81116101f85780631d527d81146102d15780632341513514610309578063248a9ca31461032957806327d9f3a6146103675780632f2ff15d1461037d57610225565b806301ffc9a71461022a578063089fe6aa1461025f5780631418f5531461028f5780631af03203146102b1575b600080fd5b34801561023657600080fd5b5061024a610245366004612aa3565b61070e565b60405190151581526020015b60405180910390f35b34801561026b57600080fd5b50600a5461027b9062ffffff1681565b60405162ffffff9091168152602001610256565b34801561029b57600080fd5b506102af6102aa366004612bea565b610747565b005b3480156102bd57600080fd5b506102af6102cc366004612a2a565b610aa9565b3480156102dd57600080fd5b506005546102f1906001600160a01b031681565b6040516001600160a01b039091168152602001610256565b34801561031557600080fd5b506102af610324366004612a60565b610c71565b34801561033557600080fd5b50610359610344366004612a60565b60009081526020819052604090206001015490565b604051908152602001610256565b34801561037357600080fd5b5061035960075481565b34801561038957600080fd5b506102af610398366004612a78565b610d55565b3480156103a957600080fd5b50610359600c5481565b3480156103bf57600080fd5b506102af6103ce366004612a78565b610d7a565b3480156103df57600080fd5b506004546102f1906001600160a01b031681565b3480156103ff57600080fd5b506001546102f1906201000090046001600160a01b031681565b34801561042557600080fd5b506102af610434366004612a2a565b610df8565b34801561044557600080fd5b5061024a610454366004612a2a565b600e6020526000908152604090205460ff1681565b34801561047557600080fd5b506102af610484366004612acb565b610e4e565b34801561049557600080fd5b50610359600081565b3480156104aa57600080fd5b506102af610e74565b3480156104bf57600080fd5b506102af6104ce366004612a2a565b610ed8565b3480156104df57600080fd5b506102af610f08565b3480156104f457600080fd5b50610359600d5481565b34801561050a57600080fd5b50610359610519366004612a60565b600f6020526000908152604090205481565b34801561053757600080fd5b506002546102f1906001600160a01b031681565b34801561055757600080fd5b5061024a610566366004612a78565b6110ad565b34801561057757600080fd5b506102af610586366004612c4d565b6110d6565b34801561059757600080fd5b506102af6105a6366004612a60565b611482565b3480156105b757600080fd5b506102af611493565b3480156105cc57600080fd5b506102af6105db366004612a2a565b6114a8565b3480156105ec57600080fd5b506102af6105fb366004612b06565b6114d6565b34801561060c57600080fd5b5061062061061b366004612a60565b61197a565b604080516001600160a01b039094168452602084019290925290820152606001610256565b34801561065157600080fd5b506003546102f1906001600160a01b031681565b34801561067157600080fd5b506102af610680366004612a78565b6119b7565b34801561069157600080fd5b506106206106a0366004612a60565b6119dc565b3480156106b157600080fd5b50610359600b5481565b6102af6106c9366004612b79565b6119ec565b3480156106da57600080fd5b506102af6106e9366004612a60565b611d7a565b3480156106fa57600080fd5b506102af610709366004612a2a565b611d8b565b60006001600160e01b03198216637965db0b60e01b148061073f57506301ffc9a760e01b6001600160e01b03198316145b90505b919050565b6004546001600160a01b031633146107a65760405162461bcd60e51b815260206004820152601d60248201527f43616c6c6572206973204e6f742061206d61737465722077616c6c657400000060448201526064015b60405180910390fd5b6002546040516370a0823160e01b81523060048201526001600160a01b0390911690879082906370a082319060240160206040518083038186803b1580156107ed57600080fd5b505afa158015610801573d6000803e3d6000fd5b505050506040513d601f19601f820116820180604052508101906108259190612aee565b10156108435760405162461bcd60e51b815260040161079d90612d8d565b600d5460009061085460648a612edc565b61085e9190612efc565b9050600061086c828a612f1b565b905080600b60008282546108809190612ec4565b90915550600090506108928683612edc565b905060005b878110156109755760008989838181106108c157634e487b7160e01b600052603260045260246000fd5b90506040020160200135836108d69190612efc565b9050601160405180604001604052808c8c8681811061090557634e487b7160e01b600052603260045260246000fd5b61091b9260206040909202019081019150612a2a565b6001600160a01b039081168252602091820194909452825460018082018555600094855293829020835160029092020180546001600160a01b0319169190951617845501519101558061096d81612f79565b915050610897565b506000898152601060205260409020601180546109939291906128bc565b506040805160608101825233808252602082018c81528284018681526009805460018101825560009190915293517f6e1540171b6c0c960b71a7020d9f60077f6af931a8bbf590da0223dacf75c7af600390950294850180546001600160a01b0319166001600160a01b0390921691909117905590517f6e1540171b6c0c960b71a7020d9f60077f6af931a8bbf590da0223dacf75c7b0840155517f6e1540171b6c0c960b71a7020d9f60077f6af931a8bbf590da0223dacf75c7b190920191909155600b5491518c92600080516020612fb983398151915291610a7b918e91601190612e58565b60405180910390a3610a8f60116000612934565b8415610a9d57610a9d611de1565b50505050505050505050565b6000610ab48161224f565b6040516370a0823160e01b81523060048201526000906001600160a01b038416906370a082319060240160206040518083038186803b158015610af657600080fd5b505afa158015610b0a573d6000803e3d6000fd5b505050506040513d601f19601f82011682018060405250810190610b2e9190612aee565b11610b6d5760405162461bcd60e51b815260206004820152600f60248201526e15985b1d59481d1bdbc81cdb585b1b608a1b604482015260640161079d565b6040516370a0823160e01b81523060048201526001600160a01b0383169063a9059cbb90339083906370a082319060240160206040518083038186803b158015610bb657600080fd5b505afa158015610bca573d6000803e3d6000fd5b505050506040513d601f19601f82011682018060405250810190610bee9190612aee565b6040516001600160e01b031960e085901b1681526001600160a01b0390921660048301526024820152604401602060405180830381600087803b158015610c3457600080fd5b505af1158015610c48573d6000803e3d6000fd5b505050506040513d601f19601f82011682018060405250810190610c6c9190612a44565b505050565b6000818152600f6020526040902054610ccc5760405162461bcd60e51b815260206004820152601960248201527f596f7520646f6e2774206861766520616e7920636c616d697300000000000000604482015260640161079d565b6005546000828152600f60205260408082205490516227753160e31b8152600481019290925233602483015260448201526001600160a01b039091169063013ba98890606401600060405180830381600087803b158015610d2c57600080fd5b505af1158015610d40573d6000803e3d6000fd5b505050600091825250600f6020526040812055565b600082815260208190526040902060010154610d708161224f565b610c6c8383612259565b6001600160a01b0381163314610dea5760405162461bcd60e51b815260206004820152602f60248201527f416363657373436f6e74726f6c3a2063616e206f6e6c792072656e6f756e636560448201526e103937b632b9903337b91039b2b63360891b606482015260840161079d565b610df482826122dd565b5050565b6000610e038161224f565b600580546001600160a01b0319166001600160a01b0384169081179091556040517f07d0f313d785d0a6e19240fc9a591f3d8e79b3c463c30276ea9e7678409ad0f890600090a25050565b6000610e598161224f565b50600a805462ffffff191662ffffff92909216919091179055565b6004546001600160a01b03163314610ece5760405162461bcd60e51b815260206004820152601d60248201527f43616c6c6572206973204e6f742061206d61737465722077616c6c6574000000604482015260640161079d565b610ed6611de1565b565b6000610ee38161224f565b506001600160a01b03166000908152600e60205260409020805460ff19166001179055565b600154610100900460ff1615808015610f2557506001805460ff16105b80610f3e5750303b158015610f3e57506001805460ff16145b610fa15760405162461bcd60e51b815260206004820152602e60248201527f496e697469616c697a61626c653a20636f6e747261637420697320616c72656160448201526d191e481a5b9a5d1a585b1a5e995960921b606482015260840161079d565b6001805460ff1916811790558015610fc3576001805461ff0019166101001790555b610fce600033612342565b600280546001600160a01b0319908116732791bca1f2de4661ed88a30c99a7a9449aa841741790915560018054750d500b1d8e8ef31e21c99d1db9a6444d3adf1270000062010000600160b01b031990911617815560038054831673e592427a0aece92de3edee1f18e0157c05861564179055600d55600a805462ffffff1916610bb81790556101f4600755600480549091163317905580156110aa576001805461ff00191681556040519081527f7f26b83ff96e1f2b6a682f133852f6798a09c465da95921460cefb38474024989060200160405180910390a15b50565b6000918252602082815260408084206001600160a01b0393909316845291905290205460ff1690565b60065482146110f75760405162461bcd60e51b815260040161079d90612dc2565b6002546040516370a0823160e01b81523360048201526001600160a01b0390911690889082906370a082319060240160206040518083038186803b15801561113e57600080fd5b505afa158015611152573d6000803e3d6000fd5b505050506040513d601f19601f820116820180604052508101906111769190612aee565b10156111945760405162461bcd60e51b815260040161079d90612d8d565b6040516323b872dd60e01b8152336004820152306024820152604481018990526001600160a01b038216906323b872dd90606401602060405180830381600087803b1580156111e257600080fd5b505af11580156111f6573d6000803e3d6000fd5b505050506040513d601f19601f8201168201806040525081019061121a9190612a44565b50600d5460009061122c60648b612edc565b6112369190612efc565b90506000611244828b612f1b565b905080600b60008282546112589190612ec4565b909155506000905061126a8783612edc565b905060005b8881101561134d5760008a8a8381811061129957634e487b7160e01b600052603260045260246000fd5b90506040020160200135836112ae9190612efc565b9050601160405180604001604052808d8d868181106112dd57634e487b7160e01b600052603260045260246000fd5b6112f39260206040909202019081019150612a2a565b6001600160a01b039081168252602091820194909452825460018082018555600094855293829020835160029092020180546001600160a01b0319169190951617845501519101558061134581612f79565b91505061126f565b5060008a81526010602052604090206011805461136b9291906128bc565b506040805160608101825233808252602082018d81528284018681526009805460018101825560009190915293517f6e1540171b6c0c960b71a7020d9f60077f6af931a8bbf590da0223dacf75c7af600390950294850180546001600160a01b0319166001600160a01b0390921691909117905590517f6e1540171b6c0c960b71a7020d9f60077f6af931a8bbf590da0223dacf75c7b0840155517f6e1540171b6c0c960b71a7020d9f60077f6af931a8bbf590da0223dacf75c7b190920191909155600b5491518d92600080516020612fb983398151915291611453918f91601190612e58565b60405180910390a361146760116000612934565b841561147557611475611de1565b5050505050505050505050565b600061148d8161224f565b50600d55565b600061149e8161224f565b6110aa334761234c565b60006114b38161224f565b50600480546001600160a01b0319166001600160a01b0392909216919091179055565b60065481146114f75760405162461bcd60e51b815260040161079d90612dc2565b6001600160a01b0386166000908152600e602052604090205460ff1661156f5760405162461bcd60e51b815260206004820152602760248201527f5468697320746f6b656e206973206e6f7420617070726f76656420666f72206460448201526637b730ba34b7b760c91b606482015260840161079d565b6040516370a0823160e01b8152336004820152869088906001600160a01b038316906370a082319060240160206040518083038186803b1580156115b257600080fd5b505afa1580156115c6573d6000803e3d6000fd5b505050506040513d601f19601f820116820180604052508101906115ea9190612aee565b10156116085760405162461bcd60e51b815260040161079d90612d8d565b6116148733308b612465565b60035461162c9088906001600160a01b03168a61256f565b60408051610100810182526001600160a01b03808a168252600254166020820152600a5462ffffff16918101919091523060608201526000906080810161167442600f612ec4565b8152602081018b9052600060408083018290526060909201819052600354915163414bf38960e01b8152929350916001600160a01b039091169063414bf389906116c2908590600401612def565b602060405180830381600087803b1580156116dc57600080fd5b505af11580156116f0573d6000803e3d6000fd5b505050506040513d601f19601f820116820180604052508101906117149190612aee565b90506000600d546064836117289190612edc565b6117329190612efc565b905060006117408284612f1b565b905080600b60008282546117549190612ec4565b90915550600090506117668883612edc565b905060005b8a8110156118495760008c8c8381811061179557634e487b7160e01b600052603260045260246000fd5b90506040020160200135836117aa9190612efc565b9050601160405180604001604052808f8f868181106117d957634e487b7160e01b600052603260045260246000fd5b6117ef9260206040909202019081019150612a2a565b6001600160a01b039081168252602091820194909452825460018082018555600094855293829020835160029092020180546001600160a01b0319169190951617845501519101558061184181612f79565b91505061176b565b506000898152601060205260409020601180546118679291906128bc565b506040805160608101825233808252602082018c81528284018681526009805460018101825560009190915293517f6e1540171b6c0c960b71a7020d9f60077f6af931a8bbf590da0223dacf75c7af600390950294850180546001600160a01b0319166001600160a01b0390921691909117905590517f6e1540171b6c0c960b71a7020d9f60077f6af931a8bbf590da0223dacf75c7b0840155517f6e1540171b6c0c960b71a7020d9f60077f6af931a8bbf590da0223dacf75c7b190920191909155600b5491518692600080516020612fb98339815191529161194f918e91601190612e58565b60405180910390a361196360116000612934565b61196b611de1565b50505050505050505050505050565b6008818154811061198a57600080fd5b60009182526020909120600390910201805460018201546002909201546001600160a01b03909116925083565b6000828152602081905260409020600101546119d28161224f565b610c6c83836122dd565b6009818154811061198a57600080fd5b6006548214611a0d5760405162461bcd60e51b815260040161079d90612dc2565b60003411611a505760405162461bcd60e51b815260206004820152601060248201526f105b5bdd5b9d081d1bdbc81cdb585b1b60821b604482015260640161079d565b60408051610100810182526001546001600160a01b036201000090910481168252600254166020820152600a5462ffffff169181019190915230606082015260009060808101611aa142600f612ec4565b81523460208201819052600060408084018290526060909301819052600354925163414bf38960e01b8152939450926001600160a01b039092169163414bf3899190611af1908690600401612def565b6020604051808303818588803b158015611b0a57600080fd5b505af1158015611b1e573d6000803e3d6000fd5b50505050506040513d601f19601f82011682018060405250810190611b439190612aee565b90506000600d54606483611b579190612edc565b611b619190612efc565b90506000611b6f8284612f1b565b905080600b6000828254611b839190612ec4565b9091555060009050611b958883612edc565b905060005b89811015611c785760008b8b83818110611bc457634e487b7160e01b600052603260045260246000fd5b9050604002016020013583611bd99190612efc565b9050601160405180604001604052808e8e86818110611c0857634e487b7160e01b600052603260045260246000fd5b611c1e9260206040909202019081019150612a2a565b6001600160a01b039081168252602091820194909452825460018082018555600094855293829020835160029092020180546001600160a01b03191691909516178455015191015580611c7081612f79565b915050611b9a565b5060008b815260106020526040902060118054611c969291906128bc565b5060096040518060600160405280336001600160a01b031681526020018d815260200184815250908060018154018082558091505060019003906000526020600020906003020160009091909190915060008201518160000160006101000a8154816001600160a01b0302191690836001600160a01b031602179055506020820151816001015560408201518160020155505083336001600160a01b0316600080516020612fb98339815191528d600b546011604051611d5893929190612e58565b60405180910390a3611d6c60116000612934565b851561147557611475611de1565b6000611d858161224f565b50600655565b6000611d968161224f565b600280546001600160a01b0319166001600160a01b0384169081179091556040517f91d5bf4f9053246e98cdc0e5c39126503cfc274823cb7ec41f5c943cf09b7bc390600090a25050565b60005b60095481101561207857600060098281548110611e1157634e487b7160e01b600052603260045260246000fd5b6000918252602080832060408051606081018252600390940290910180546001600160a01b031684526001810154928401929092526002909101549082015291505b602080830151600090815260109091526040902054811015611ff857600254602080840151600090815260109091526040902080546001600160a01b039092169163a9059cbb919084908110611eb957634e487b7160e01b600052603260045260246000fd5b600091825260208083206002909202909101548682015183526010909152604090912080546001600160a01b039092169185908110611f0857634e487b7160e01b600052603260045260246000fd5b60009182526020909120600160029092020101546040516001600160e01b031960e085901b1681526001600160a01b0390921660048301526024820152604401602060405180830381600087803b158015611f6257600080fd5b505af1158015611f76573d6000803e3d6000fd5b505050506040513d601f19601f82011682018060405250810190611f9a9190612a44565b611fe65760405162461bcd60e51b815260206004820152601860248201527f556e61626c6520746f207472616e7366657220746f6b656e0000000000000000604482015260640161079d565b80611ff081612f79565b915050611e53565b506040805182516001600160a01b0316815260208084015190820152828201518183015290517f547fbad98eef6ee5afbc1e1c60d04ca06ca6bb3ed4aca121d95b67e15cc8e4f49181900360600190a1602080820151600090815260109091526040812061206591612934565b508061207081612f79565b915050611de4565b5060005b600954811015612117576008600982815481106120a957634e487b7160e01b600052603260045260246000fd5b6000918252602080832084546001818101875595855291909320600392830290930180549190920290920180546001600160a01b0319166001600160a01b0390931692909217825582810154928201929092556002918201549101558061210f81612f79565b91505061207c565b506002546040516370a0823160e01b81523060048201526000916001600160a01b0316906370a082319060240160206040518083038186803b15801561215c57600080fd5b505afa158015612170573d6000803e3d6000fd5b505050506040513d601f19601f820116820180604052508101906121949190612aee565b6002546004805460405163a9059cbb60e01b81526001600160a01b03918216928101929092526024820184905292935091169063a9059cbb90604401602060405180830381600087803b1580156121ea57600080fd5b505af11580156121fe573d6000803e3d6000fd5b505050506040513d601f19601f820116820180604052508101906122229190612a44565b50600b54600c60008282546122379190612ec4565b90915550506000600b8190556110aa90600990612955565b6110aa813361266f565b61226382826110ad565b610df4576000828152602081815260408083206001600160a01b03851684529091529020805460ff191660011790556122993390565b6001600160a01b0316816001600160a01b0316837f2f8788117e7eff1d82e926ec794901d17c78024a50270940304540a733656f0d60405160405180910390a45050565b6122e782826110ad565b15610df4576000828152602081815260408083206001600160a01b0385168085529252808320805460ff1916905551339285917ff6391f5c32d9c69d2a47ea670b442974b53935d1edc7fd64eb21e047a839171b9190a45050565b610df48282612259565b8047101561239c5760405162461bcd60e51b815260206004820152601d60248201527f416464726573733a20696e73756666696369656e742062616c616e6365000000604482015260640161079d565b6000826001600160a01b03168260405160006040518083038185875af1925050503d80600081146123e9576040519150601f19603f3d011682016040523d82523d6000602084013e6123ee565b606091505b5050905080610c6c5760405162461bcd60e51b815260206004820152603a60248201527f416464726573733a20756e61626c6520746f2073656e642076616c75652c207260448201527f6563697069656e74206d61792068617665207265766572746564000000000000606482015260840161079d565b604080516001600160a01b0385811660248301528481166044830152606480830185905283518084039091018152608490920183526020820180516001600160e01b03166323b872dd60e01b17905291516000928392908816916124c99190612cc9565b6000604051808303816000865af19150503d8060008114612506576040519150601f19603f3d011682016040523d82523d6000602084013e61250b565b606091505b50915091508180156125355750805115806125355750808060200190518101906125359190612a44565b6125675760405162461bcd60e51b815260206004820152600360248201526229aa2360e91b604482015260640161079d565b505050505050565b604080516001600160a01b038481166024830152604480830185905283518084039091018152606490920183526020820180516001600160e01b031663095ea7b360e01b17905291516000928392908716916125cb9190612cc9565b6000604051808303816000865af19150503d8060008114612608576040519150601f19603f3d011682016040523d82523d6000602084013e61260d565b606091505b50915091508180156126375750805115806126375750808060200190518101906126379190612a44565b6126685760405162461bcd60e51b8152602060048201526002602482015261534160f01b604482015260640161079d565b5050505050565b61267982826110ad565b610df457612691816001600160a01b031660146126d3565b61269c8360206126d3565b6040516020016126ad929190612ce5565b60408051601f198184030181529082905262461bcd60e51b825261079d91600401612d5a565b606060006126e2836002612efc565b6126ed906002612ec4565b67ffffffffffffffff81111561271357634e487b7160e01b600052604160045260246000fd5b6040519080825280601f01601f19166020018201604052801561273d576020820181803683370190505b509050600360fc1b8160008151811061276657634e487b7160e01b600052603260045260246000fd5b60200101906001600160f81b031916908160001a905350600f60fb1b816001815181106127a357634e487b7160e01b600052603260045260246000fd5b60200101906001600160f81b031916908160001a90535060006127c7846002612efc565b6127d2906001612ec4565b90505b6001811115612866576f181899199a1a9b1b9c1cb0b131b232b360811b85600f166010811061281457634e487b7160e01b600052603260045260246000fd5b1a60f81b82828151811061283857634e487b7160e01b600052603260045260246000fd5b60200101906001600160f81b031916908160001a90535060049490941c9361285f81612f62565b90506127d5565b5083156128b55760405162461bcd60e51b815260206004820181905260248201527f537472696e67733a20686578206c656e67746820696e73756666696369656e74604482015260640161079d565b9392505050565b8280548282559060005260206000209060020281019282156129245760005260206000209160020282015b8281111561292457825482546001600160a01b0319166001600160a01b0390911617825560018084015490830155600292830192909101906128e7565b50612930929150612976565b5090565b50805460008255600202906000526020600020908101906110aa9190612976565b50805460008255600302906000526020600020908101906110aa919061299c565b5b808211156129305780546001600160a01b031916815560006001820155600201612977565b5b808211156129305780546001600160a01b0319168155600060018201819055600282015560030161299d565b80356001600160a01b038116811461074257600080fd5b60008083601f8401126129f1578182fd5b50813567ffffffffffffffff811115612a08578182fd5b602083019150836020604083028501011115612a2357600080fd5b9250929050565b600060208284031215612a3b578081fd5b6128b5826129c9565b600060208284031215612a55578081fd5b81516128b581612faa565b600060208284031215612a71578081fd5b5035919050565b60008060408385031215612a8a578081fd5b82359150612a9a602084016129c9565b90509250929050565b600060208284031215612ab4578081fd5b81356001600160e01b0319811681146128b5578182fd5b600060208284031215612adc578081fd5b813562ffffff811681146128b5578182fd5b600060208284031215612aff578081fd5b5051919050565b600080600080600080600060c0888a031215612b20578283fd5b87359650612b30602089016129c9565b9550604088013567ffffffffffffffff811115612b4b578384fd5b612b578a828b016129e0565b989b979a50986060810135976080820135975060a09091013595509350505050565b60008060008060008060a08789031215612b91578182fd5b86359550602087013567ffffffffffffffff811115612bae578283fd5b612bba89828a016129e0565b90965094505060408701359250606087013591506080870135612bdc81612faa565b809150509295509295509295565b60008060008060008060a08789031215612c02578182fd5b8635955060208701359450604087013567ffffffffffffffff811115612c26578283fd5b612c3289828a016129e0565b909550935050606087013591506080870135612bdc81612faa565b600080600080600080600060c0888a031215612c67578283fd5b8735965060208801359550604088013567ffffffffffffffff811115612c8b578384fd5b612c978a828b016129e0565b909650945050606088013592506080880135915060a0880135612cb981612faa565b8091505092959891949750929550565b60008251612cdb818460208701612f32565b9190910192915050565b60007f416363657373436f6e74726f6c3a206163636f756e742000000000000000000082528351612d1d816017850160208801612f32565b7001034b99036b4b9b9b4b733903937b6329607d1b6017918401918201528351612d4e816028840160208801612f32565b01602801949350505050565b6000602082528251806020840152612d79816040850160208701612f32565b601f01601f19169190910160400192915050565b6020808252818101527f416d6f756e7420746f20646f6e61746520657863656564732062616c616e6365604082015260600190565b6020808252601390820152722ab730baba3437b934bd32b21031b0b63632b960691b604082015260600190565b81516001600160a01b03908116825260208084015182169083015260408084015162ffffff16908301526060808401518216908301526080808401519083015260a0838101519083015260c0808401519083015260e09283015116918101919091526101000190565b6000606082018583526020858185015260406060818601528286548085526080870191508786528386209450855b81811015612eb55785546001600160a01b03168352600186810154868501526002909601959284019201612e86565b50909998505050505050505050565b60008219821115612ed757612ed7612f94565b500190565b600082612ef757634e487b7160e01b81526012600452602481fd5b500490565b6000816000190483118215151615612f1657612f16612f94565b500290565b600082821015612f2d57612f2d612f94565b500390565b60005b83811015612f4d578181015183820152602001612f35565b83811115612f5c576000848401525b50505050565b600081612f7157612f71612f94565b506000190190565b6000600019821415612f8d57612f8d612f94565b5060010190565b634e487b7160e01b600052601160045260246000fd5b80151581146110aa57600080fdfe79b14f25002a439c35ede54adcc98f0d5e18e59c35b525f5f13bb0d53c43acdea26469706673582212208add1d2cd4c4b4e75d785f4dca2755353327f27b3a7f994a10b79c3518c8f10f64736f6c63430008020033",
  "linkReferences": {},
  "deployedLinkReferences": {}
}