{
  "_format": "hh-sol-artifact-1",
  "contractName": "MaraScan",
  "sourceName": "contracts/MaraScan.sol",
  "abi": [
    {
      "anonymous": false,
      "inputs": [
        {
          "indexed": true,
          "internalType": "address",
          "name": "contractAddress",
          "type": "address"
        }
      ],
      "name": "ApproveToken",
      "type": "event"
    },
    {
      "anonymous": false,
      "inputs": [
        {
          "indexed": true,
          "internalType": "address",
          "name": "newContract",
          "type": "address"
        }
      ],
      "name": "ChangedBadgeContract",
      "type": "event"
    },
    {
      "anonymous": false,
      "inputs": [
        {
          "indexed": true,
          "internalType": "address",
          "name": "newContract",
          "type": "address"
        }
      ],
      "name": "ChangedUSDCContract",
      "type": "event"
    },
    {
      "anonymous": false,
      "inputs": [
        {
          "components": [
            {
              "internalType": "address",
              "name": "donor",
              "type": "address"
            },
            {
              "internalType": "uint256",
              "name": "donationRequestId",
              "type": "uint256"
            },
            {
              "internalType": "uint256",
              "name": "amount",
              "type": "uint256"
            },
            {
              "components": [
                {
                  "internalType": "address[]",
                  "name": "beneficiaryAddresses",
                  "type": "address[]"
                },
                {
                  "internalType": "uint256[]",
                  "name": "amount",
                  "type": "uint256[]"
                }
              ],
              "internalType": "struct MaraScan.Beneficiary",
              "name": "beneficiaries",
              "type": "tuple"
            }
          ],
          "indexed": false,
          "internalType": "struct MaraScan.Donation",
          "name": "donation",
          "type": "tuple"
        }
      ],
      "name": "Disbursed",
      "type": "event"
    },
    {
      "anonymous": false,
      "inputs": [
        {
          "indexed": true,
          "internalType": "address",
          "name": "donor",
          "type": "address"
        },
        {
          "indexed": true,
          "internalType": "uint256",
          "name": "amount",
          "type": "uint256"
        },
        {
          "indexed": false,
          "internalType": "uint256",
          "name": "donationRequestId",
          "type": "uint256"
        },
        {
          "indexed": false,
          "internalType": "uint256",
          "name": "currentUndisbursedBalance",
          "type": "uint256"
        },
        {
          "components": [
            {
              "internalType": "address[]",
              "name": "beneficiaryAddresses",
              "type": "address[]"
            },
            {
              "internalType": "uint256[]",
              "name": "amount",
              "type": "uint256[]"
            }
          ],
          "indexed": false,
          "internalType": "struct MaraScan.Beneficiary",
          "name": "benefiaries",
          "type": "tuple"
        }
      ],
      "name": "Donated",
      "type": "event"
    },
    {
      "anonymous": false,
      "inputs": [
        {
          "indexed": false,
          "internalType": "uint8",
          "name": "version",
          "type": "uint8"
        }
      ],
      "name": "Initialized",
      "type": "event"
    },
    {
      "anonymous": false,
      "inputs": [
        {
          "indexed": true,
          "internalType": "bytes32",
          "name": "role",
          "type": "bytes32"
        },
        {
          "indexed": true,
          "internalType": "bytes32",
          "name": "previousAdminRole",
          "type": "bytes32"
        },
        {
          "indexed": true,
          "internalType": "bytes32",
          "name": "newAdminRole",
          "type": "bytes32"
        }
      ],
      "name": "RoleAdminChanged",
      "type": "event"
    },
    {
      "anonymous": false,
      "inputs": [
        {
          "indexed": true,
          "internalType": "bytes32",
          "name": "role",
          "type": "bytes32"
        },
        {
          "indexed": true,
          "internalType": "address",
          "name": "account",
          "type": "address"
        },
        {
          "indexed": true,
          "internalType": "address",
          "name": "sender",
          "type": "address"
        }
      ],
      "name": "RoleGranted",
      "type": "event"
    },
    {
      "anonymous": false,
      "inputs": [
        {
          "indexed": true,
          "internalType": "bytes32",
          "name": "role",
          "type": "bytes32"
        },
        {
          "indexed": true,
          "internalType": "address",
          "name": "account",
          "type": "address"
        },
        {
          "indexed": true,
          "internalType": "address",
          "name": "sender",
          "type": "address"
        }
      ],
      "name": "RoleRevoked",
      "type": "event"
    },
    {
      "inputs": [],
      "name": "ADMIN_ROLE",
      "outputs": [
        {
          "internalType": "bytes32",
          "name": "",
          "type": "bytes32"
        }
      ],
      "stateMutability": "view",
      "type": "function"
    },
    {
      "inputs": [],
      "name": "BADGE",
      "outputs": [
        {
          "internalType": "address",
          "name": "",
          "type": "address"
        }
      ],
      "stateMutability": "view",
      "type": "function"
    },
    {
      "inputs": [],
      "name": "DEFAULT_ADMIN_ROLE",
      "outputs": [
        {
          "internalType": "bytes32",
          "name": "",
          "type": "bytes32"
        }
      ],
      "stateMutability": "view",
      "type": "function"
    },
    {
      "inputs": [],
      "name": "MASTER_WALLET",
      "outputs": [
        {
          "internalType": "address",
          "name": "",
          "type": "address"
        }
      ],
      "stateMutability": "view",
      "type": "function"
    },
    {
      "inputs": [
        {
          "internalType": "uint256",
          "name": "amountOut",
          "type": "uint256"
        },
        {
          "internalType": "uint256",
          "name": "_donationRequestId",
          "type": "uint256"
        },
        {
          "components": [
            {
              "internalType": "address[]",
              "name": "beneficiaryAddresses",
              "type": "address[]"
            },
            {
              "internalType": "uint256[]",
              "name": "amount",
              "type": "uint256[]"
            }
          ],
          "internalType": "struct MaraScan.Beneficiary",
          "name": "_donationDetails",
          "type": "tuple"
        },
        {
          "internalType": "bytes32",
          "name": "secretKey",
          "type": "bytes32"
        },
        {
          "internalType": "bool",
          "name": "disburse",
          "type": "bool"
        }
      ],
      "name": "SwapExactETHForTokens",
      "outputs": [],
      "stateMutability": "payable",
      "type": "function"
    },
    {
      "inputs": [],
      "name": "USDC",
      "outputs": [
        {
          "internalType": "address",
          "name": "",
          "type": "address"
        }
      ],
      "stateMutability": "view",
      "type": "function"
    },
    {
      "inputs": [
        {
          "internalType": "uint256",
          "name": "",
          "type": "uint256"
        }
      ],
      "name": "allDisbursedDonations",
      "outputs": [
        {
          "internalType": "address",
          "name": "donor",
          "type": "address"
        },
        {
          "internalType": "uint256",
          "name": "donationRequestId",
          "type": "uint256"
        },
        {
          "internalType": "uint256",
          "name": "amount",
          "type": "uint256"
        },
        {
          "components": [
            {
              "internalType": "address[]",
              "name": "beneficiaryAddresses",
              "type": "address[]"
            },
            {
              "internalType": "uint256[]",
              "name": "amount",
              "type": "uint256[]"
            }
          ],
          "internalType": "struct MaraScan.Beneficiary",
          "name": "beneficiaries",
          "type": "tuple"
        }
      ],
      "stateMutability": "view",
      "type": "function"
    },
    {
      "inputs": [
        {
          "internalType": "address",
          "name": "_tokenAddress",
          "type": "address"
        }
      ],
      "name": "approveTokenForDonation",
      "outputs": [],
      "stateMutability": "nonpayable",
      "type": "function"
    },
    {
      "inputs": [
        {
          "internalType": "address",
          "name": "",
          "type": "address"
        }
      ],
      "name": "approvedTokens",
      "outputs": [
        {
          "internalType": "bool",
          "name": "",
          "type": "bool"
        }
      ],
      "stateMutability": "view",
      "type": "function"
    },
    {
      "inputs": [
        {
          "internalType": "uint256",
          "name": "donationRequestId",
          "type": "uint256"
        }
      ],
      "name": "claimBadge",
      "outputs": [],
      "stateMutability": "nonpayable",
      "type": "function"
    },
    {
      "inputs": [
        {
          "internalType": "uint256",
          "name": "",
          "type": "uint256"
        }
      ],
      "name": "claimBadgesForDonors",
      "outputs": [
        {
          "internalType": "uint256",
          "name": "",
          "type": "uint256"
        }
      ],
      "stateMutability": "view",
      "type": "function"
    },
    {
      "inputs": [],
      "name": "disburseToken",
      "outputs": [],
      "stateMutability": "nonpayable",
      "type": "function"
    },
    {
      "inputs": [
        {
          "internalType": "uint256",
          "name": "_amount",
          "type": "uint256"
        },
        {
          "internalType": "uint256",
          "name": "_donationRequestId",
          "type": "uint256"
        },
        {
          "components": [
            {
              "internalType": "address[]",
              "name": "beneficiaryAddresses",
              "type": "address[]"
            },
            {
              "internalType": "uint256[]",
              "name": "amount",
              "type": "uint256[]"
            }
          ],
          "internalType": "struct MaraScan.Beneficiary",
          "name": "_donationDetails",
          "type": "tuple"
        },
        {
          "internalType": "bytes32",
          "name": "secretKey",
          "type": "bytes32"
        },
        {
          "internalType": "bool",
          "name": "disburse",
          "type": "bool"
        }
      ],
      "name": "donate",
      "outputs": [],
      "stateMutability": "nonpayable",
      "type": "function"
    },
    {
      "inputs": [
        {
          "internalType": "uint256",
          "name": "_amount",
          "type": "uint256"
        },
        {
          "internalType": "uint256",
          "name": "_donationRequestId",
          "type": "uint256"
        },
        {
          "internalType": "address[]",
          "name": "_beneficiaries",
          "type": "address[]"
        },
        {
          "internalType": "uint256[]",
          "name": "_amountPerBeneficiary",
          "type": "uint256[]"
        },
        {
          "internalType": "bool",
          "name": "disburse",
          "type": "bool"
        }
      ],
      "name": "donationFromCircle",
      "outputs": [],
      "stateMutability": "nonpayable",
      "type": "function"
    },
    {
      "inputs": [],
      "name": "emergencyWithdrawETH",
      "outputs": [],
      "stateMutability": "nonpayable",
      "type": "function"
    },
    {
      "inputs": [
        {
          "internalType": "address",
          "name": "_tokenAddress",
          "type": "address"
        }
      ],
      "name": "emergencyWithdrawToken",
      "outputs": [],
      "stateMutability": "nonpayable",
      "type": "function"
    },
    {
      "inputs": [
        {
          "internalType": "bytes32",
          "name": "role",
          "type": "bytes32"
        }
      ],
      "name": "getRoleAdmin",
      "outputs": [
        {
          "internalType": "bytes32",
          "name": "",
          "type": "bytes32"
        }
      ],
      "stateMutability": "view",
      "type": "function"
    },
    {
      "inputs": [
        {
          "internalType": "bytes32",
          "name": "role",
          "type": "bytes32"
        },
        {
          "internalType": "address",
          "name": "account",
          "type": "address"
        }
      ],
      "name": "grantRole",
      "outputs": [],
      "stateMutability": "nonpayable",
      "type": "function"
    },
    {
      "inputs": [
        {
          "internalType": "bytes32",
          "name": "role",
          "type": "bytes32"
        },
        {
          "internalType": "address",
          "name": "account",
          "type": "address"
        }
      ],
      "name": "hasRole",
      "outputs": [
        {
          "internalType": "bool",
          "name": "",
          "type": "bool"
        }
      ],
      "stateMutability": "view",
      "type": "function"
    },
    {
      "inputs": [],
      "name": "initialize",
      "outputs": [],
      "stateMutability": "nonpayable",
      "type": "function"
    },
    {
      "inputs": [],
      "name": "minimumAmountToDisburse",
      "outputs": [
        {
          "internalType": "uint256",
          "name": "",
          "type": "uint256"
        }
      ],
      "stateMutability": "view",
      "type": "function"
    },
    {
      "inputs": [],
      "name": "processingFeePercent",
      "outputs": [
        {
          "internalType": "uint256",
          "name": "",
          "type": "uint256"
        }
      ],
      "stateMutability": "view",
      "type": "function"
    },
    {
      "inputs": [
        {
          "internalType": "bytes32",
          "name": "role",
          "type": "bytes32"
        },
        {
          "internalType": "address",
          "name": "account",
          "type": "address"
        }
      ],
      "name": "renounceRole",
      "outputs": [],
      "stateMutability": "nonpayable",
      "type": "function"
    },
    {
      "inputs": [
        {
          "internalType": "bytes32",
          "name": "role",
          "type": "bytes32"
        },
        {
          "internalType": "address",
          "name": "account",
          "type": "address"
        }
      ],
      "name": "revokeRole",
      "outputs": [],
      "stateMutability": "nonpayable",
      "type": "function"
    },
    {
      "inputs": [
        {
          "internalType": "address",
          "name": "_tokenAddress",
          "type": "address"
        }
      ],
      "name": "setBadgeTokenContract",
      "outputs": [],
      "stateMutability": "nonpayable",
      "type": "function"
    },
    {
      "inputs": [
        {
          "internalType": "address",
          "name": "_masterWallet",
          "type": "address"
        }
      ],
      "name": "setMasterWallet",
      "outputs": [],
      "stateMutability": "nonpayable",
      "type": "function"
    },
    {
      "inputs": [
        {
          "internalType": "uint256",
          "name": "_fee",
          "type": "uint256"
        }
      ],
      "name": "setProcessingFee",
      "outputs": [],
      "stateMutability": "nonpayable",
      "type": "function"
    },
    {
      "inputs": [
        {
          "internalType": "bytes32",
          "name": "_secret",
          "type": "bytes32"
        }
      ],
      "name": "setSecretKey",
      "outputs": [],
      "stateMutability": "nonpayable",
      "type": "function"
    },
    {
      "inputs": [
        {
          "internalType": "address",
          "name": "_tokenAddress",
          "type": "address"
        }
      ],
      "name": "setUSDCTokenContract",
      "outputs": [],
      "stateMutability": "nonpayable",
      "type": "function"
    },
    {
      "inputs": [
        {
          "internalType": "bytes4",
          "name": "interfaceId",
          "type": "bytes4"
        }
      ],
      "name": "supportsInterface",
      "outputs": [
        {
          "internalType": "bool",
          "name": "",
          "type": "bool"
        }
      ],
      "stateMutability": "view",
      "type": "function"
    },
    {
      "inputs": [
        {
          "internalType": "uint256",
          "name": "amountIn",
          "type": "uint256"
        },
        {
          "internalType": "address",
          "name": "tokenIn",
          "type": "address"
        },
        {
          "components": [
            {
              "internalType": "address[]",
              "name": "beneficiaryAddresses",
              "type": "address[]"
            },
            {
              "internalType": "uint256[]",
              "name": "amount",
              "type": "uint256[]"
            }
          ],
          "internalType": "struct MaraScan.Beneficiary",
          "name": "_donationDetails",
          "type": "tuple"
        },
        {
          "internalType": "uint256",
          "name": "_donationRequestId",
          "type": "uint256"
        },
        {
          "internalType": "bool",
          "name": "disburse",
          "type": "bool"
        },
        {
          "internalType": "bytes32",
          "name": "secretKey",
          "type": "bytes32"
        }
      ],
      "name": "swapExactTokensForTokens",
      "outputs": [],
      "stateMutability": "nonpayable",
      "type": "function"
    },
    {
      "inputs": [],
      "name": "totalAmountDisbursed",
      "outputs": [
        {
          "internalType": "uint256",
          "name": "",
          "type": "uint256"
        }
      ],
      "stateMutability": "view",
      "type": "function"
    },
    {
      "inputs": [],
      "name": "unDisbursedAmount",
      "outputs": [
        {
          "internalType": "uint256",
          "name": "",
          "type": "uint256"
        }
      ],
      "stateMutability": "view",
      "type": "function"
    },
    {
      "inputs": [
        {
          "internalType": "uint256",
          "name": "",
          "type": "uint256"
        }
      ],
      "name": "unDisbursedDonations",
      "outputs": [
        {
          "internalType": "address",
          "name": "donor",
          "type": "address"
        },
        {
          "internalType": "uint256",
          "name": "donationRequestId",
          "type": "uint256"
        },
        {
          "internalType": "uint256",
          "name": "amount",
          "type": "uint256"
        },
        {
          "components": [
            {
              "internalType": "address[]",
              "name": "beneficiaryAddresses",
              "type": "address[]"
            },
            {
              "internalType": "uint256[]",
              "name": "amount",
              "type": "uint256[]"
            }
          ],
          "internalType": "struct MaraScan.Beneficiary",
          "name": "beneficiaries",
          "type": "tuple"
        }
      ],
      "stateMutability": "view",
      "type": "function"
    },
    {
      "inputs": [],
      "name": "uniswapRouter",
      "outputs": [
        {
          "internalType": "contract IUniswapV2Router02",
          "name": "",
          "type": "address"
        }
      ],
      "stateMutability": "view",
      "type": "function"
    }
  ],
  "bytecode": "0x608060405234801561001057600080fd5b506133d2806100206000396000f3fe6080604052600436106102045760003560e01c80638129fc1c11610118578063a8adfdcc116100a0578063d5d0c6f01161006f578063d5d0c6f0146105d2578063d60bb296146105f2578063e6f45f0d14610608578063ed81872614610628578063eead6fd81461064857610204565b8063a8adfdcc14610542578063a9cf4fcf14610562578063b0583c9414610582578063d547741f146105b257610204565b806389a30271116100e757806389a30271146104c257806391d14854146104e25780639461446d14610502578063a217fddf1461040b578063a6c7bf8a1461052257610204565b80638129fc1c1461045557806383fc6cf11461046a57806384536017146104805780638623afef1461049557610204565b806336568abe1161019b5780636d1ea3fa1161016a5780636d1ea3fa146103b5578063735de9f7146103e557806375b238fc1461040b5780637ddef29f146104205780637f49a9321461043557610204565b806336568abe146103425780633c2c4b5e1461036257806362e3d82814610382578063656ad7231461039557610204565b8063248a9ca3116101d7578063248a9ca3146102b857806327d9f3a6146102f65780632f2ff15d1461030c578063305c53101461032c57610204565b806301ffc9a7146102095780631af032031461023e5780631d527d81146102605780632341513514610298575b600080fd5b34801561021557600080fd5b50610229610224366004612d91565b610668565b60405190151581526020015b60405180910390f35b34801561024a57600080fd5b5061025e610259366004612c37565b61069f565b005b34801561026c57600080fd5b50600354610280906001600160a01b031681565b6040516001600160a01b039091168152602001610235565b3480156102a457600080fd5b5061025e6102b3366004612d4a565b61086c565b3480156102c457600080fd5b506102e86102d3366004612d4a565b60009081526020819052604090206001015490565b604051908152602001610235565b34801561030257600080fd5b506102e860065481565b34801561031857600080fd5b5061025e610327366004612d62565b610950565b34801561033857600080fd5b506102e8600a5481565b34801561034e57600080fd5b5061025e61035d366004612d62565b610975565b34801561036e57600080fd5b50600254610280906001600160a01b031681565b61025e610390366004612ee3565b6109f3565b3480156103a157600080fd5b5061025e6103b0366004612c37565b610ea8565b3480156103c157600080fd5b506102296103d0366004612c37565b600c6020526000908152604090205460ff1681565b3480156103f157600080fd5b50600154610280906201000090046001600160a01b031681565b34801561041757600080fd5b506102e8600081565b34801561042c57600080fd5b5061025e610efe565b34801561044157600080fd5b5061025e610450366004612c37565b610f62565b34801561046157600080fd5b5061025e610f92565b34801561047657600080fd5b506102e8600b5481565b34801561048c57600080fd5b5061025e6110fd565b3480156104a157600080fd5b506102e86104b0366004612d4a565b600d6020526000908152604090205481565b3480156104ce57600080fd5b50600454610280906001600160a01b031681565b3480156104ee57600080fd5b506102296104fd366004612d62565b611112565b34801561050e57600080fd5b5061025e61051d366004612d4a565b61113b565b34801561052e57600080fd5b5061025e61053d366004612c37565b61114c565b34801561054e57600080fd5b5061025e61055d366004612dd1565b61117a565b34801561056e57600080fd5b5061025e61057d366004612e4f565b6117e4565b34801561058e57600080fd5b506105a261059d366004612d4a565b611b9d565b6040516102359493929190613068565b3480156105be57600080fd5b5061025e6105cd366004612d62565b611c9d565b3480156105de57600080fd5b506105a26105ed366004612d4a565b611cc2565b3480156105fe57600080fd5b506102e860095481565b34801561061457600080fd5b5061025e610623366004612ee3565b611cd2565b34801561063457600080fd5b5061025e610643366004612d4a565b612091565b34801561065457600080fd5b5061025e610663366004612c37565b6120a2565b60006001600160e01b03198216637965db0b60e01b148061069957506301ffc9a760e01b6001600160e01b03198316145b92915050565b60006106aa816120f8565b6040516370a0823160e01b81523060048201526000906001600160a01b038416906370a082319060240160206040518083038186803b1580156106ec57600080fd5b505afa158015610700573d6000803e3d6000fd5b505050506040513d601f19601f820116820180604052508101906107249190612db9565b116107685760405162461bcd60e51b815260206004820152600f60248201526e15985b1d59481d1bdbc81cdb585b1b608a1b60448201526064015b60405180910390fd5b6040516370a0823160e01b81523060048201526001600160a01b0383169063a9059cbb90339083906370a082319060240160206040518083038186803b1580156107b157600080fd5b505afa1580156107c5573d6000803e3d6000fd5b505050506040513d601f19601f820116820180604052508101906107e99190612db9565b6040516001600160e01b031960e085901b1681526001600160a01b0390921660048301526024820152604401602060405180830381600087803b15801561082f57600080fd5b505af1158015610843573d6000803e3d6000fd5b505050506040513d601f19601f820116820180604052508101906108679190612d2e565b505050565b6000818152600d60205260409020546108c75760405162461bcd60e51b815260206004820152601960248201527f596f7520646f6e2774206861766520616e7920636c616d697300000000000000604482015260640161075f565b6003546000828152600d60205260408082205490516227753160e31b8152600481019290925233602483015260448201526001600160a01b039091169063013ba98890606401600060405180830381600087803b15801561092757600080fd5b505af115801561093b573d6000803e3d6000fd5b505050600091825250600d6020526040812055565b60008281526020819052604090206001015461096b816120f8565b6108678383612102565b6001600160a01b03811633146109e55760405162461bcd60e51b815260206004820152602f60248201527f416363657373436f6e74726f6c3a2063616e206f6e6c792072656e6f756e636560448201526e103937b632b9903337b91039b2b63360891b606482015260840161075f565b6109ef8282612186565b5050565b6005548214610a145760405162461bcd60e51b815260040161075f90613107565b604080516002808252606082018352600092602083019080368337019050509050600160029054906101000a90046001600160a01b03166001600160a01b031663ad5c46486040518163ffffffff1660e01b815260040160206040518083038186803b158015610a8357600080fd5b505afa158015610a97573d6000803e3d6000fd5b505050506040513d601f19601f82011682018060405250810190610abb9190612c53565b81600081518110610adc57634e487b7160e01b600052603260045260246000fd5b6001600160a01b039283166020918202929092010152600454825191169082906001908110610b1b57634e487b7160e01b600052603260045260246000fd5b6001600160a01b0392831660209182029290920101526001546000916201000090910416637ff36ab534898530610b5342603261325d565b6040518663ffffffff1660e01b8152600401610b72949392919061317d565b6000604051808303818588803b158015610b8b57600080fd5b505af1158015610b9f573d6000803e3d6000fd5b50505050506040513d6000823e601f3d908101601f19168201604052610bc89190810190612c6f565b90506000600b54606483600181518110610bf257634e487b7160e01b600052603260045260246000fd5b6020026020010151610c049190613275565b610c0e9190613295565b905060008183600181518110610c3457634e487b7160e01b600052603260045260246000fd5b6020026020010151610c4691906132b4565b90508060096000828254610c5a919061325d565b909155505060408051608081018252338152602081018a90528082018390528151808301909252600791606082019080610c948c80613216565b80806020026020016040519081016040528093929190818152602001838360200280828437600092019190915250505090825250602090810190610cda908d018d613216565b80806020026020016040519081016040528093929190818152602001838360200280828437600092018290525093909452505091909252835460018082018655948252602091829020845160059092020180546001600160a01b0319166001600160a01b039092169190911781558382015194810194909455604083015160028501556060830151805180519495949193506003850192610d8092849290910190612a55565b506020828101518051610d999260018501920190612aba565b505050505082600181518110610dbf57634e487b7160e01b600052603260045260246000fd5b6020026020010151336001600160a01b031660008051602061337d8339815191528a60095460405180604001604052808d8060000190610dff9190613216565b80806020026020016040519081016040528093929190818152602001838360200280828437600092019190915250505090825250602090810190610e45908f018f613216565b808060200260200160405190810160405280939291908181526020018383602002808284376000920191909152505050915250604051610e87939291906131ee565b60405180910390a38415610e9d57610e9d6121eb565b505050505050505050565b6000610eb3816120f8565b600380546001600160a01b0319166001600160a01b0384169081179091556040517f07d0f313d785d0a6e19240fc9a591f3d8e79b3c463c30276ea9e7678409ad0f890600090a25050565b6002546001600160a01b03163314610f585760405162461bcd60e51b815260206004820152601d60248201527f43616c6c6572206973204e6f742061206d61737465722077616c6c6574000000604482015260640161075f565b610f606121eb565b565b6000610f6d816120f8565b506001600160a01b03166000908152600c60205260409020805460ff19166001179055565b600154610100900460ff1615808015610faf57506001805460ff16105b80610fc85750303b158015610fc857506001805460ff16145b61102b5760405162461bcd60e51b815260206004820152602e60248201527f496e697469616c697a61626c653a20636f6e747261637420697320616c72656160448201526d191e481a5b9a5d1a585b1a5e995960921b606482015260840161075f565b6001805460ff191681179055801561104d576001805461ff0019166101001790555b6110586000336126e5565b60018054757a250d5630b4cf539739df2c5dacb4c659f2488d000062010000600160b01b03199091161790556101f4600655600480546001600160a01b0319167307865c6e87b9f70255377e024ace6630c1eaa37f1790556005600b5580156110fa576001805461ff00191681556040519081527f7f26b83ff96e1f2b6a682f133852f6798a09c465da95921460cefb38474024989060200160405180910390a15b50565b6000611108816120f8565b6110fa33476126ef565b6000918252602082815260408084206001600160a01b0393909316845291905290205460ff1690565b6000611146816120f8565b50600b55565b6000611157816120f8565b50600280546001600160a01b0319166001600160a01b0392909216919091179055565b600554811461119b5760405162461bcd60e51b815260040161075f90613107565b6001600160a01b0385166000908152600c602052604090205460ff166112155760405162461bcd60e51b815260206004820152602960248201527f5468697320746f6b656e206973206e6f74207265636f676e6973656420666f72604482015268103237b730ba34b7b760b91b606482015260840161075f565b6040516370a0823160e01b8152336004820152859087906001600160a01b038316906370a082319060240160206040518083038186803b15801561125857600080fd5b505afa15801561126c573d6000803e3d6000fd5b505050506040513d601f19601f820116820180604052508101906112909190612db9565b10156112ae5760405162461bcd60e51b815260040161075f906130d2565b60408051600280825260608201835260009260208301908036833701905050905086816000815181106112f157634e487b7160e01b600052603260045260246000fd5b6001600160a01b03928316602091820292909201015260045482519116908290600190811061133057634e487b7160e01b600052603260045260246000fd5b6001600160a01b0392831660209182029290920101526040516323b872dd60e01b8152336004820152306024820152604481018a9052908316906323b872dd90606401602060405180830381600087803b15801561138d57600080fd5b505af11580156113a1573d6000803e3d6000fd5b505050506040513d601f19601f820116820180604052508101906113c59190612d2e565b5060015460405163095ea7b360e01b8152620100009091046001600160a01b039081166004830152602482018a905283169063095ea7b390604401602060405180830381600087803b15801561141a57600080fd5b505af115801561142e573d6000803e3d6000fd5b505050506040513d601f19601f820116820180604052508101906114529190612d2e565b506001546000906201000090046001600160a01b03166338ed17398a600a853061147d42603261325d565b6040518663ffffffff1660e01b815260040161149d9594939291906131b2565b600060405180830381600087803b1580156114b757600080fd5b505af11580156114cb573d6000803e3d6000fd5b505050506040513d6000823e601f3d908101601f191682016040526114f39190810190612c6f565b90506000600b5460648360018151811061151d57634e487b7160e01b600052603260045260246000fd5b602002602001015161152f9190613275565b6115399190613295565b90506000818360018151811061155f57634e487b7160e01b600052603260045260246000fd5b602002602001015161157191906132b4565b90508060096000828254611585919061325d565b909155505060408051608081018252338152602081018a905280820183905281518083019092526007916060820190806115bf8e80613216565b80806020026020016040519081016040528093929190818152602001838360200280828437600092019190915250505090825250602090810190611605908f018f613216565b80806020026020016040519081016040528093929190818152602001838360200280828437600092018290525093909452505091909252835460018082018655948252602091829020845160059092020180546001600160a01b0319166001600160a01b0390921691909117815583820151948101949094556040830151600285015560608301518051805194959491935060038501926116ab92849290910190612a55565b5060208281015180516116c49260018501920190612aba565b5050505050826001815181106116ea57634e487b7160e01b600052603260045260246000fd5b6020026020010151336001600160a01b031660008051602061337d8339815191528a60095460405180604001604052808f806000019061172a9190613216565b80806020026020016040519081016040528093929190818152602001838360200280828437600081840152601f19601f8201169050808301925050505050505081526020018f806020019061177f9190613216565b8080602002602001604051908101604052809392919081815260200183836020028082843760009201919091525050509152506040516117c1939291906131ee565b60405180910390a386156117d7576117d76121eb565b5050505050505050505050565b6002546001600160a01b0316331461183e5760405162461bcd60e51b815260206004820152601d60248201527f43616c6c6572206973204e6f742061206d61737465722077616c6c6574000000604482015260640161075f565b600480546040516370a0823160e01b815230928101929092526001600160a01b031690889082906370a082319060240160206040518083038186803b15801561188657600080fd5b505afa15801561189a573d6000803e3d6000fd5b505050506040513d601f19601f820116820180604052508101906118be9190612db9565b10156118dc5760405162461bcd60e51b815260040161075f906130d2565b600b546000906118ed60648b613275565b6118f79190613295565b90506000611905828b6132b4565b90508060096000828254611919919061325d565b909155505060025460405163a9059cbb60e01b81526001600160a01b039182166004820152602481018490529084169063a9059cbb90604401602060405180830381600087803b15801561196c57600080fd5b505af1158015611980573d6000803e3d6000fd5b505050506040513d601f19601f820116820180604052508101906119a49190612d2e565b5060076040518060800160405280336001600160a01b031681526020018b815260200183815260200160405180604001604052808c8c808060200260200160405190810160405280939291908181526020018383602002808284376000920191909152505050908252506040805160208c810282810182019093528c82529283019290918d918d918291850190849080828437600092018290525093909452505091909252835460018082018655948252602091829020845160059092020180546001600160a01b0319166001600160a01b039092169190911781558382015194810194909455604083015160028501556060830151805180519495949193506003850192611ab892849290910190612a55565b506020828101518051611ad19260018501920190612aba565b505050505089336001600160a01b031660008051602061337d8339815191528b60095460405180604001604052808e8e808060200260200160405190810160405280939291908181526020018383602002808284376000920191909152505050908252506040805160208e810282810182019093528e82529283019290918f918f9182918501908490808284376000920191909152505050915250604051611b7b939291906131ee565b60405180910390a38315611b9157611b916121eb565b50505050505050505050565b60088181548110611bad57600080fd5b60009182526020918290206005909102018054600182015460028301546040805160038601805460609881028301890184529282018381526001600160a01b039096169850939692959490939284928491840182828015611c3757602002820191906000526020600020905b81546001600160a01b03168152600190910190602001808311611c19575b5050505050815260200160018201805480602002602001604051908101604052809291908181526020018280548015611c8f57602002820191906000526020600020905b815481526020019060010190808311611c7b575b505050505081525050905084565b600082815260208190526040902060010154611cb8816120f8565b6108678383612186565b60078181548110611bad57600080fd5b6005548214611cf35760405162461bcd60e51b815260040161075f90613107565b600480546040516370a0823160e01b815233928101929092526001600160a01b031690869082906370a082319060240160206040518083038186803b158015611d3b57600080fd5b505afa158015611d4f573d6000803e3d6000fd5b505050506040513d601f19601f82011682018060405250810190611d739190612db9565b1015611d915760405162461bcd60e51b815260040161075f906130d2565b600b54600090611da2606489613275565b611dac9190613295565b90506000611dba82896132b4565b90508060096000828254611dce919061325d565b90915550506040516323b872dd60e01b8152336004820152306024820152604481018290526001600160a01b038416906323b872dd90606401602060405180830381600087803b158015611e2157600080fd5b505af1158015611e35573d6000803e3d6000fd5b505050506040513d601f19601f82011682018060405250810190611e599190612d2e565b508060096000828254611e6c919061325d565b909155505060408051608081018252338152602081018990528082018390528151808301909252600791606082019080611ea68b80613216565b80806020026020016040519081016040528093929190818152602001838360200280828437600092019190915250505090825250602090810190611eec908c018c613216565b80806020026020016040519081016040528093929190818152602001838360200280828437600092018290525093909452505091909252835460018082018655948252602091829020845160059092020180546001600160a01b0319166001600160a01b039092169190911781558382015194810194909455604083015160028501556060830151805180519495949193506003850192611f9292849290910190612a55565b506020828101518051611fab9260018501920190612aba565b505050505087336001600160a01b031660008051602061337d8339815191528960095460405180604001604052808c8060000190611fe99190613216565b8080602002602001604051908101604052809392919081815260200183836020028082843760009201919091525050509082525060209081019061202f908e018e613216565b808060200260200160405190810160405280939291908181526020018383602002808284376000920191909152505050915250604051612071939291906131ee565b60405180910390a38315612087576120876121eb565b5050505050505050565b600061209c816120f8565b50600555565b60006120ad816120f8565b600480546001600160a01b0319166001600160a01b0384169081179091556040517f91d5bf4f9053246e98cdc0e5c39126503cfc274823cb7ec41f5c943cf09b7bc390600090a25050565b6110fa8133612808565b61210c8282611112565b6109ef576000828152602081815260408083206001600160a01b03851684529091529020805460ff191660011790556121423390565b6001600160a01b0316816001600160a01b0316837f2f8788117e7eff1d82e926ec794901d17c78024a50270940304540a733656f0d60405160405180910390a45050565b6121908282611112565b156109ef576000828152602081815260408083206001600160a01b0385168085529252808320805460ff1916905551339285917ff6391f5c32d9c69d2a47ea670b442974b53935d1edc7fd64eb21e047a839171b9190a45050565b60005b6007548110156124d25760006007828154811061221b57634e487b7160e01b600052603260045260246000fd5b600091825260209182902060408051608081018252600590930290910180546001600160a01b031683526001810154838501526002810154838301528151600382018054958602820160609081018552938201868152949592948487019492939192849284918401828280156122ba57602002820191906000526020600020905b81546001600160a01b0316815260019091019060200180831161229c575b505050505081526020016001820180548060200260200160405190810160405280929190818152602001828054801561231257602002820191906000526020600020905b8154815260200190600101908083116122fe575b50505050508152505081525050905060005b606082015151518310156124875760045460608301515180516001600160a01b039092169163a9059cbb91908490811061236e57634e487b7160e01b600052603260045260246000fd5b6020026020010151846060015160200151848151811061239e57634e487b7160e01b600052603260045260246000fd5b60200260200101516040518363ffffffff1660e01b81526004016123d79291906001600160a01b03929092168252602082015260400190565b602060405180830381600087803b1580156123f157600080fd5b505af1158015612405573d6000803e3d6000fd5b505050506040513d601f19601f820116820180604052508101906124299190612d2e565b6124755760405162461bcd60e51b815260206004820152601860248201527f556e61626c6520746f207472616e7366657220746f6b656e0000000000000000604482015260640161075f565b8261247f81613312565b935050612324565b507f8c925ec60e43807144213185d764c1b6a2ec660b76cc8f9e5d67e6711866f440816040516124b79190613134565b60405180910390a150806124ca81613312565b9150506121ee565b5060005b6007548110156125a65760086007828154811061250357634e487b7160e01b600052603260045260246000fd5b6000918252602080832084546001818101875595855291909320600592830290930180549190920290920180546001600160a01b0319166001600160a01b039093169290921782558281015492820192909255600280830154908201556003808301805490918301906125799082908490612af5565b506001828101805461258e9284019190612af5565b5050505050808061259e90613312565b9150506124d6565b50600480546040516370a0823160e01b815230928101929092526000916001600160a01b03909116906370a082319060240160206040518083038186803b1580156125f057600080fd5b505afa158015612604573d6000803e3d6000fd5b505050506040513d601f19601f820116820180604052508101906126289190612db9565b6004805460025460405163a9059cbb60e01b81526001600160a01b039182169381019390935260248301849052929350919091169063a9059cbb90604401602060405180830381600087803b15801561268057600080fd5b505af1158015612694573d6000803e3d6000fd5b505050506040513d601f19601f820116820180604052508101906126b89190612d2e565b50600954600a60008282546126cd919061325d565b9091555050600060098190556110fa90600790612b35565b6109ef8282612102565b8047101561273f5760405162461bcd60e51b815260206004820152601d60248201527f416464726573733a20696e73756666696369656e742062616c616e6365000000604482015260640161075f565b6000826001600160a01b03168260405160006040518083038185875af1925050503d806000811461278c576040519150601f19603f3d011682016040523d82523d6000602084013e612791565b606091505b50509050806108675760405162461bcd60e51b815260206004820152603a60248201527f416464726573733a20756e61626c6520746f2073656e642076616c75652c207260448201527f6563697069656e74206d61792068617665207265766572746564000000000000606482015260840161075f565b6128128282611112565b6109ef5761282a816001600160a01b0316601461286c565b61283583602061286c565b604051602001612846929190612ff3565b60408051601f198184030181529082905262461bcd60e51b825261075f9160040161309f565b6060600061287b836002613295565b61288690600261325d565b67ffffffffffffffff8111156128ac57634e487b7160e01b600052604160045260246000fd5b6040519080825280601f01601f1916602001820160405280156128d6576020820181803683370190505b509050600360fc1b816000815181106128ff57634e487b7160e01b600052603260045260246000fd5b60200101906001600160f81b031916908160001a905350600f60fb1b8160018151811061293c57634e487b7160e01b600052603260045260246000fd5b60200101906001600160f81b031916908160001a9053506000612960846002613295565b61296b90600161325d565b90505b60018111156129ff576f181899199a1a9b1b9c1cb0b131b232b360811b85600f16601081106129ad57634e487b7160e01b600052603260045260246000fd5b1a60f81b8282815181106129d157634e487b7160e01b600052603260045260246000fd5b60200101906001600160f81b031916908160001a90535060049490941c936129f8816132fb565b905061296e565b508315612a4e5760405162461bcd60e51b815260206004820181905260248201527f537472696e67733a20686578206c656e67746820696e73756666696369656e74604482015260640161075f565b9392505050565b828054828255906000526020600020908101928215612aaa579160200282015b82811115612aaa57825182546001600160a01b0319166001600160a01b03909116178255602090920191600190910190612a75565b50612ab6929150612b56565b5090565b828054828255906000526020600020908101928215612aaa579160200282015b82811115612aaa578251825591602001919060010190612ada565b828054828255906000526020600020908101928215612aaa5760005260206000209182015b82811115612aaa578254825591600101919060010190612b1a565b50805460008255600502906000526020600020908101906110fa9190612b6b565b5b80821115612ab65760008155600101612b57565b80821115612ab65780546001600160a01b0319168155600060018201819055600282018190556003820181612ba08282612bb9565b612bae600183016000612bb9565b505050600501612b6b565b50805460008255906000526020600020908101906110fa9190612b56565b60008083601f840112612be8578081fd5b50813567ffffffffffffffff811115612bff578182fd5b6020830191508360208083028501011115612c1957600080fd5b9250929050565b600060408284031215612c31578081fd5b50919050565b600060208284031215612c48578081fd5b8135612a4e81613359565b600060208284031215612c64578081fd5b8151612a4e81613359565b60006020808385031215612c81578182fd5b825167ffffffffffffffff80821115612c98578384fd5b818501915085601f830112612cab578384fd5b815181811115612cbd57612cbd613343565b838102604051601f19603f83011681018181108582111715612ce157612ce1613343565b604052828152858101935084860182860187018a1015612cff578788fd5b8795505b83861015612d21578051855260019590950194938601938601612d03565b5098975050505050505050565b600060208284031215612d3f578081fd5b8151612a4e8161336e565b600060208284031215612d5b578081fd5b5035919050565b60008060408385031215612d74578081fd5b823591506020830135612d8681613359565b809150509250929050565b600060208284031215612da2578081fd5b81356001600160e01b031981168114612a4e578182fd5b600060208284031215612dca578081fd5b5051919050565b60008060008060008060c08789031215612de9578182fd5b863595506020870135612dfb81613359565b9450604087013567ffffffffffffffff811115612e16578283fd5b612e2289828a01612c20565b945050606087013592506080870135612e3a8161336e565b8092505060a087013590509295509295509295565b600080600080600080600060a0888a031215612e69578081fd5b8735965060208801359550604088013567ffffffffffffffff80821115612e8e578283fd5b612e9a8b838c01612bd7565b909750955060608a0135915080821115612eb2578283fd5b50612ebf8a828b01612bd7565b9094509250506080880135612ed38161336e565b8091505092959891949750929550565b600080600080600060a08688031215612efa578081fd5b8535945060208601359350604086013567ffffffffffffffff811115612f1e578182fd5b612f2a88828901612c20565b935050606086013591506080860135612f428161336e565b809150509295509295909350565b6000815180845260208085019450808401835b83811015612f885781516001600160a01b031687529582019590820190600101612f63565b509495945050505050565b6000815160408452612fa86040850182612f50565b602084810151868303878301528051808452908201935090918491908301905b80831015612fe85784518252938301936001929092019190830190612fc8565b509695505050505050565b60007f416363657373436f6e74726f6c3a206163636f756e74200000000000000000008252835161302b8160178501602088016132cb565b7001034b99036b4b9b9b4b733903937b6329607d1b601791840191820152835161305c8160288401602088016132cb565b01602801949350505050565b600060018060a01b0386168252846020830152836040830152608060608301526130956080830184612f93565b9695505050505050565b60006020825282518060208401526130be8160408501602087016132cb565b601f01601f19169190910160400192915050565b6020808252818101527f416d6f756e7420746f20646f6e61746520657863656564732062616c616e6365604082015260600190565b6020808252601390820152722ab730baba3437b934bd32b21031b0b63632b960691b604082015260600190565b60006020825260018060a01b0383511660208301526020830151604083015260408301516060830152606083015160808084015261317560a0840182612f93565b949350505050565b6000858252608060208301526131966080830186612f50565b6001600160a01b03949094166040830152506060015292915050565b600086825285602083015260a060408301526131d160a0830186612f50565b6001600160a01b0394909416606083015250608001529392505050565b60008482528360208301526060604083015261320d6060830184612f93565b95945050505050565b6000808335601e1984360301811261322c578283fd5b83018035915067ffffffffffffffff821115613246578283fd5b6020908101925081023603821315612c1957600080fd5b600082198211156132705761327061332d565b500190565b60008261329057634e487b7160e01b81526012600452602481fd5b500490565b60008160001904831182151516156132af576132af61332d565b500290565b6000828210156132c6576132c661332d565b500390565b60005b838110156132e65781810151838201526020016132ce565b838111156132f5576000848401525b50505050565b60008161330a5761330a61332d565b506000190190565b60006000198214156133265761332661332d565b5060010190565b634e487b7160e01b600052601160045260246000fd5b634e487b7160e01b600052604160045260246000fd5b6001600160a01b03811681146110fa57600080fd5b80151581146110fa57600080fdfed0097d85fe35a9792e55714393d1c9682c3c0c6a481767ad597af1b56ce1d4e7a26469706673582212200813bad8091d4a55fef749ab60107e3df7a6682602453564a1fe2179c777518164736f6c63430008020033",
  "linkReferences": {},
  "deployedLinkReferences": {}
}