{
  "_format": "hh-sol-artifact-1",
  "contractName": "MaraScan",
  "sourceName": "contracts/MaraScan.sol",
  "abi": [
    {
      "anonymous": false,
      "inputs": [
        {
          "indexed": true,
          "internalType": "address",
          "name": "contractAddress",
          "type": "address"
        }
      ],
      "name": "ApproveToken",
      "type": "event"
    },
    {
      "anonymous": false,
      "inputs": [
        {
          "indexed": true,
          "internalType": "address",
          "name": "newContract",
          "type": "address"
        }
      ],
      "name": "ChangedBadgeContract",
      "type": "event"
    },
    {
      "anonymous": false,
      "inputs": [
        {
          "indexed": true,
          "internalType": "address",
          "name": "newContract",
          "type": "address"
        }
      ],
      "name": "ChangedUSDCContract",
      "type": "event"
    },
    {
      "anonymous": false,
      "inputs": [
        {
          "components": [
            {
              "internalType": "address",
              "name": "donor",
              "type": "address"
            },
            {
              "internalType": "uint256",
              "name": "donationRequestId",
              "type": "uint256"
            },
            {
              "internalType": "uint256",
              "name": "amount",
              "type": "uint256"
            }
          ],
          "indexed": false,
          "internalType": "struct MaraScan.Donation",
          "name": "donation",
          "type": "tuple"
        }
      ],
      "name": "Disbursed",
      "type": "event"
    },
    {
      "anonymous": false,
      "inputs": [
        {
          "indexed": true,
          "internalType": "address",
          "name": "donor",
          "type": "address"
        },
        {
          "indexed": true,
          "internalType": "uint256",
          "name": "amount",
          "type": "uint256"
        },
        {
          "indexed": false,
          "internalType": "uint256",
          "name": "donationRequestId",
          "type": "uint256"
        },
        {
          "indexed": false,
          "internalType": "uint256",
          "name": "currentUndisbursedBalance",
          "type": "uint256"
        },
        {
          "components": [
            {
              "internalType": "address",
              "name": "beneficiaryAddresses",
              "type": "address"
            },
            {
              "internalType": "uint256",
              "name": "amountPerBeneficiary",
              "type": "uint256"
            }
          ],
          "indexed": false,
          "internalType": "struct MaraScan.BeneficiaryOutput[]",
          "name": "beneficiaries",
          "type": "tuple[]"
        }
      ],
      "name": "Donated",
      "type": "event"
    },
    {
      "anonymous": false,
      "inputs": [
        {
          "indexed": false,
          "internalType": "uint8",
          "name": "version",
          "type": "uint8"
        }
      ],
      "name": "Initialized",
      "type": "event"
    },
    {
      "anonymous": false,
      "inputs": [
        {
          "indexed": true,
          "internalType": "bytes32",
          "name": "role",
          "type": "bytes32"
        },
        {
          "indexed": true,
          "internalType": "bytes32",
          "name": "previousAdminRole",
          "type": "bytes32"
        },
        {
          "indexed": true,
          "internalType": "bytes32",
          "name": "newAdminRole",
          "type": "bytes32"
        }
      ],
      "name": "RoleAdminChanged",
      "type": "event"
    },
    {
      "anonymous": false,
      "inputs": [
        {
          "indexed": true,
          "internalType": "bytes32",
          "name": "role",
          "type": "bytes32"
        },
        {
          "indexed": true,
          "internalType": "address",
          "name": "account",
          "type": "address"
        },
        {
          "indexed": true,
          "internalType": "address",
          "name": "sender",
          "type": "address"
        }
      ],
      "name": "RoleGranted",
      "type": "event"
    },
    {
      "anonymous": false,
      "inputs": [
        {
          "indexed": true,
          "internalType": "bytes32",
          "name": "role",
          "type": "bytes32"
        },
        {
          "indexed": true,
          "internalType": "address",
          "name": "account",
          "type": "address"
        },
        {
          "indexed": true,
          "internalType": "address",
          "name": "sender",
          "type": "address"
        }
      ],
      "name": "RoleRevoked",
      "type": "event"
    },
    {
      "inputs": [],
      "name": "ADMIN_ROLE",
      "outputs": [
        {
          "internalType": "bytes32",
          "name": "",
          "type": "bytes32"
        }
      ],
      "stateMutability": "view",
      "type": "function"
    },
    {
      "inputs": [],
      "name": "BADGE",
      "outputs": [
        {
          "internalType": "address",
          "name": "",
          "type": "address"
        }
      ],
      "stateMutability": "view",
      "type": "function"
    },
    {
      "inputs": [],
      "name": "DEFAULT_ADMIN_ROLE",
      "outputs": [
        {
          "internalType": "bytes32",
          "name": "",
          "type": "bytes32"
        }
      ],
      "stateMutability": "view",
      "type": "function"
    },
    {
      "inputs": [],
      "name": "MASTER_WALLET",
      "outputs": [
        {
          "internalType": "address",
          "name": "",
          "type": "address"
        }
      ],
      "stateMutability": "view",
      "type": "function"
    },
    {
      "inputs": [
        {
          "internalType": "uint256",
          "name": "amountOut",
          "type": "uint256"
        },
        {
          "internalType": "uint256",
          "name": "_donationRequestId",
          "type": "uint256"
        },
        {
          "components": [
            {
              "internalType": "address",
              "name": "beneficiaryAddresses",
              "type": "address"
            },
            {
              "internalType": "uint256",
              "name": "acresPerBeneficiary",
              "type": "uint256"
            }
          ],
          "internalType": "struct MaraScan.BeneficiaryInput[]",
          "name": "_donationDetails",
          "type": "tuple[]"
        },
        {
          "internalType": "uint256",
          "name": "totalNumberOfAcres",
          "type": "uint256"
        },
        {
          "internalType": "bytes32",
          "name": "secretKey",
          "type": "bytes32"
        },
        {
          "internalType": "bool",
          "name": "disburse",
          "type": "bool"
        }
      ],
      "name": "SwapExactETHForTokens",
      "outputs": [],
      "stateMutability": "payable",
      "type": "function"
    },
    {
      "inputs": [],
      "name": "USDC",
      "outputs": [
        {
          "internalType": "address",
          "name": "",
          "type": "address"
        }
      ],
      "stateMutability": "view",
      "type": "function"
    },
    {
      "inputs": [
        {
          "internalType": "uint256",
          "name": "",
          "type": "uint256"
        }
      ],
      "name": "allDisbursedDonations",
      "outputs": [
        {
          "internalType": "address",
          "name": "donor",
          "type": "address"
        },
        {
          "internalType": "uint256",
          "name": "donationRequestId",
          "type": "uint256"
        },
        {
          "internalType": "uint256",
          "name": "amount",
          "type": "uint256"
        }
      ],
      "stateMutability": "view",
      "type": "function"
    },
    {
      "inputs": [
        {
          "internalType": "address",
          "name": "_tokenAddress",
          "type": "address"
        }
      ],
      "name": "approveTokenForDonation",
      "outputs": [],
      "stateMutability": "nonpayable",
      "type": "function"
    },
    {
      "inputs": [
        {
          "internalType": "address",
          "name": "",
          "type": "address"
        }
      ],
      "name": "approvedTokens",
      "outputs": [
        {
          "internalType": "bool",
          "name": "",
          "type": "bool"
        }
      ],
      "stateMutability": "view",
      "type": "function"
    },
    {
      "inputs": [
        {
          "internalType": "uint256",
          "name": "donationRequestId",
          "type": "uint256"
        }
      ],
      "name": "claimBadge",
      "outputs": [],
      "stateMutability": "nonpayable",
      "type": "function"
    },
    {
      "inputs": [
        {
          "internalType": "uint256",
          "name": "",
          "type": "uint256"
        }
      ],
      "name": "claimBadgesForDonors",
      "outputs": [
        {
          "internalType": "uint256",
          "name": "",
          "type": "uint256"
        }
      ],
      "stateMutability": "view",
      "type": "function"
    },
    {
      "inputs": [],
      "name": "disburseToken",
      "outputs": [],
      "stateMutability": "nonpayable",
      "type": "function"
    },
    {
      "inputs": [
        {
          "internalType": "uint256",
          "name": "_amount",
          "type": "uint256"
        },
        {
          "internalType": "uint256",
          "name": "_donationRequestId",
          "type": "uint256"
        },
        {
          "components": [
            {
              "internalType": "address",
              "name": "beneficiaryAddresses",
              "type": "address"
            },
            {
              "internalType": "uint256",
              "name": "acresPerBeneficiary",
              "type": "uint256"
            }
          ],
          "internalType": "struct MaraScan.BeneficiaryInput[]",
          "name": "_donationDetails",
          "type": "tuple[]"
        },
        {
          "internalType": "uint256",
          "name": "totalNumberOfAcres",
          "type": "uint256"
        },
        {
          "internalType": "bytes32",
          "name": "secretKey",
          "type": "bytes32"
        },
        {
          "internalType": "bool",
          "name": "disburse",
          "type": "bool"
        }
      ],
      "name": "donate",
      "outputs": [],
      "stateMutability": "nonpayable",
      "type": "function"
    },
    {
      "inputs": [
        {
          "internalType": "uint256",
          "name": "_amount",
          "type": "uint256"
        },
        {
          "internalType": "uint256",
          "name": "_donationRequestId",
          "type": "uint256"
        },
        {
          "components": [
            {
              "internalType": "address",
              "name": "beneficiaryAddresses",
              "type": "address"
            },
            {
              "internalType": "uint256",
              "name": "acresPerBeneficiary",
              "type": "uint256"
            }
          ],
          "internalType": "struct MaraScan.BeneficiaryInput[]",
          "name": "_donationDetails",
          "type": "tuple[]"
        },
        {
          "internalType": "uint256",
          "name": "totalNumberOfAcres",
          "type": "uint256"
        },
        {
          "internalType": "bool",
          "name": "disburse",
          "type": "bool"
        }
      ],
      "name": "donationFromCircle",
      "outputs": [],
      "stateMutability": "nonpayable",
      "type": "function"
    },
    {
      "inputs": [],
      "name": "emergencyWithdrawETH",
      "outputs": [],
      "stateMutability": "nonpayable",
      "type": "function"
    },
    {
      "inputs": [
        {
          "internalType": "address",
          "name": "_tokenAddress",
          "type": "address"
        }
      ],
      "name": "emergencyWithdrawToken",
      "outputs": [],
      "stateMutability": "nonpayable",
      "type": "function"
    },
    {
      "inputs": [
        {
          "internalType": "bytes32",
          "name": "role",
          "type": "bytes32"
        }
      ],
      "name": "getRoleAdmin",
      "outputs": [
        {
          "internalType": "bytes32",
          "name": "",
          "type": "bytes32"
        }
      ],
      "stateMutability": "view",
      "type": "function"
    },
    {
      "inputs": [
        {
          "internalType": "bytes32",
          "name": "role",
          "type": "bytes32"
        },
        {
          "internalType": "address",
          "name": "account",
          "type": "address"
        }
      ],
      "name": "grantRole",
      "outputs": [],
      "stateMutability": "nonpayable",
      "type": "function"
    },
    {
      "inputs": [
        {
          "internalType": "bytes32",
          "name": "role",
          "type": "bytes32"
        },
        {
          "internalType": "address",
          "name": "account",
          "type": "address"
        }
      ],
      "name": "hasRole",
      "outputs": [
        {
          "internalType": "bool",
          "name": "",
          "type": "bool"
        }
      ],
      "stateMutability": "view",
      "type": "function"
    },
    {
      "inputs": [],
      "name": "initialize",
      "outputs": [],
      "stateMutability": "nonpayable",
      "type": "function"
    },
    {
      "inputs": [],
      "name": "minimumAmountToDisburse",
      "outputs": [
        {
          "internalType": "uint256",
          "name": "",
          "type": "uint256"
        }
      ],
      "stateMutability": "view",
      "type": "function"
    },
    {
      "inputs": [],
      "name": "processingFeePercent",
      "outputs": [
        {
          "internalType": "uint256",
          "name": "",
          "type": "uint256"
        }
      ],
      "stateMutability": "view",
      "type": "function"
    },
    {
      "inputs": [
        {
          "internalType": "bytes32",
          "name": "role",
          "type": "bytes32"
        },
        {
          "internalType": "address",
          "name": "account",
          "type": "address"
        }
      ],
      "name": "renounceRole",
      "outputs": [],
      "stateMutability": "nonpayable",
      "type": "function"
    },
    {
      "inputs": [
        {
          "internalType": "bytes32",
          "name": "role",
          "type": "bytes32"
        },
        {
          "internalType": "address",
          "name": "account",
          "type": "address"
        }
      ],
      "name": "revokeRole",
      "outputs": [],
      "stateMutability": "nonpayable",
      "type": "function"
    },
    {
      "inputs": [
        {
          "internalType": "address",
          "name": "_tokenAddress",
          "type": "address"
        }
      ],
      "name": "setBadgeTokenContract",
      "outputs": [],
      "stateMutability": "nonpayable",
      "type": "function"
    },
    {
      "inputs": [
        {
          "internalType": "address",
          "name": "_masterWallet",
          "type": "address"
        }
      ],
      "name": "setMasterWallet",
      "outputs": [],
      "stateMutability": "nonpayable",
      "type": "function"
    },
    {
      "inputs": [
        {
          "internalType": "uint256",
          "name": "_fee",
          "type": "uint256"
        }
      ],
      "name": "setProcessingFee",
      "outputs": [],
      "stateMutability": "nonpayable",
      "type": "function"
    },
    {
      "inputs": [
        {
          "internalType": "bytes32",
          "name": "_secret",
          "type": "bytes32"
        }
      ],
      "name": "setSecretKey",
      "outputs": [],
      "stateMutability": "nonpayable",
      "type": "function"
    },
    {
      "inputs": [
        {
          "internalType": "address",
          "name": "_tokenAddress",
          "type": "address"
        }
      ],
      "name": "setUSDCTokenContract",
      "outputs": [],
      "stateMutability": "nonpayable",
      "type": "function"
    },
    {
      "inputs": [
        {
          "internalType": "bytes4",
          "name": "interfaceId",
          "type": "bytes4"
        }
      ],
      "name": "supportsInterface",
      "outputs": [
        {
          "internalType": "bool",
          "name": "",
          "type": "bool"
        }
      ],
      "stateMutability": "view",
      "type": "function"
    },
    {
      "inputs": [
        {
          "internalType": "uint256",
          "name": "amountIn",
          "type": "uint256"
        },
        {
          "internalType": "address",
          "name": "tokenIn",
          "type": "address"
        },
        {
          "components": [
            {
              "internalType": "address",
              "name": "beneficiaryAddresses",
              "type": "address"
            },
            {
              "internalType": "uint256",
              "name": "acresPerBeneficiary",
              "type": "uint256"
            }
          ],
          "internalType": "struct MaraScan.BeneficiaryInput[]",
          "name": "_donationDetails",
          "type": "tuple[]"
        },
        {
          "internalType": "uint256",
          "name": "_donationRequestId",
          "type": "uint256"
        },
        {
          "internalType": "uint256",
          "name": "totalNumberOfAcres",
          "type": "uint256"
        },
        {
          "internalType": "bytes32",
          "name": "secretKey",
          "type": "bytes32"
        }
      ],
      "name": "swapExactTokensForTokens",
      "outputs": [],
      "stateMutability": "nonpayable",
      "type": "function"
    },
    {
      "inputs": [],
      "name": "totalAmountDisbursed",
      "outputs": [
        {
          "internalType": "uint256",
          "name": "",
          "type": "uint256"
        }
      ],
      "stateMutability": "view",
      "type": "function"
    },
    {
      "inputs": [],
      "name": "unDisbursedAmount",
      "outputs": [
        {
          "internalType": "uint256",
          "name": "",
          "type": "uint256"
        }
      ],
      "stateMutability": "view",
      "type": "function"
    },
    {
      "inputs": [
        {
          "internalType": "uint256",
          "name": "",
          "type": "uint256"
        }
      ],
      "name": "unDisbursedDonations",
      "outputs": [
        {
          "internalType": "address",
          "name": "donor",
          "type": "address"
        },
        {
          "internalType": "uint256",
          "name": "donationRequestId",
          "type": "uint256"
        },
        {
          "internalType": "uint256",
          "name": "amount",
          "type": "uint256"
        }
      ],
      "stateMutability": "view",
      "type": "function"
    },
    {
      "inputs": [],
      "name": "uniswapRouter",
      "outputs": [
        {
          "internalType": "contract IUniswapV2Router02",
          "name": "",
          "type": "address"
        }
      ],
      "stateMutability": "view",
      "type": "function"
    }
  ],
  "bytecode": "0x608060405234801561001057600080fd5b50613053806100206000396000f3fe6080604052600436106102045760003560e01c80637f49a93211610118578063a217fddf116100a0578063d547741f1161006f578063d547741f146105e7578063d5d0c6f014610607578063d60bb29614610627578063ed8187261461063d578063eead6fd81461065d57610204565b8063a217fddf1461042b578063a6c7bf8a14610562578063ae1ac70a14610582578063b0583c94146105a257610204565b80638623afef116100e75780638623afef146104b557806389a30271146104e257806391d14854146105025780639409bf5c146105225780639461446d1461054257610204565b80637f49a932146104555780638129fc1c1461047557806383fc6cf11461048a57806384536017146104a057610204565b8063305c53101161019b578063656ad7231161016a578063656ad723146103b55780636d1ea3fa146103d5578063735de9f71461040557806375b238fc1461042b5780637ddef29f1461044057610204565b8063305c53101461033f578063319cafa31461035557806336568abe146103755780633c2c4b5e1461039557610204565b806323415135116101d757806323415135146102ab578063248a9ca3146102cb57806327d9f3a6146103095780632f2ff15d1461031f57610204565b806301ffc9a7146102095780631af032031461023e5780631d527d81146102605780632311cda014610298575b600080fd5b34801561021557600080fd5b50610229610224366004612ab2565b61067d565b60405190151581526020015b60405180910390f35b34801561024a57600080fd5b5061025e610259366004612958565b6106b4565b005b34801561026c57600080fd5b50600354610280906001600160a01b031681565b6040516001600160a01b039091168152602001610235565b61025e6102a6366004612bd8565b610881565b3480156102b757600080fd5b5061025e6102c6366004612a6b565b610d0c565b3480156102d757600080fd5b506102fb6102e6366004612a6b565b60009081526020819052604090206001015490565b604051908152602001610235565b34801561031557600080fd5b506102fb60065481565b34801561032b57600080fd5b5061025e61033a366004612a83565b610df0565b34801561034b57600080fd5b506102fb600a5481565b34801561036157600080fd5b5061025e610370366004612b67565b610e15565b34801561038157600080fd5b5061025e610390366004612a83565b61113d565b3480156103a157600080fd5b50600254610280906001600160a01b031681565b3480156103c157600080fd5b5061025e6103d0366004612958565b6111bb565b3480156103e157600080fd5b506102296103f0366004612958565b600c6020526000908152604090205460ff1681565b34801561041157600080fd5b50600154610280906201000090046001600160a01b031681565b34801561043757600080fd5b506102fb600081565b34801561044c57600080fd5b5061025e611211565b34801561046157600080fd5b5061025e610470366004612958565b611275565b34801561048157600080fd5b5061025e6112a5565b34801561049657600080fd5b506102fb600b5481565b3480156104ac57600080fd5b5061025e611432565b3480156104c157600080fd5b506102fb6104d0366004612a6b565b600d6020526000908152604090205481565b3480156104ee57600080fd5b50600454610280906001600160a01b031681565b34801561050e57600080fd5b5061022961051d366004612a83565b611447565b34801561052e57600080fd5b5061025e61053d366004612bd8565b611470565b34801561054e57600080fd5b5061025e61055d366004612a6b565b6117e7565b34801561056e57600080fd5b5061025e61057d366004612958565b6117f8565b34801561058e57600080fd5b5061025e61059d366004612af2565b611826565b3480156105ae57600080fd5b506105c26105bd366004612a6b565b611e50565b604080516001600160a01b039094168452602084019290925290820152606001610235565b3480156105f357600080fd5b5061025e610602366004612a83565b611e8d565b34801561061357600080fd5b506105c2610622366004612a6b565b611eb2565b34801561063357600080fd5b506102fb60095481565b34801561064957600080fd5b5061025e610658366004612a6b565b611ec2565b34801561066957600080fd5b5061025e610678366004612958565b611ed3565b60006001600160e01b03198216637965db0b60e01b14806106ae57506301ffc9a760e01b6001600160e01b03198316145b92915050565b60006106bf81611f29565b6040516370a0823160e01b81523060048201526000906001600160a01b038416906370a082319060240160206040518083038186803b15801561070157600080fd5b505afa158015610715573d6000803e3d6000fd5b505050506040513d601f19601f820116820180604052508101906107399190612ada565b1161077d5760405162461bcd60e51b815260206004820152600f60248201526e15985b1d59481d1bdbc81cdb585b1b608a1b60448201526064015b60405180910390fd5b6040516370a0823160e01b81523060048201526001600160a01b0383169063a9059cbb90339083906370a082319060240160206040518083038186803b1580156107c657600080fd5b505afa1580156107da573d6000803e3d6000fd5b505050506040513d601f19601f820116820180604052508101906107fe9190612ada565b6040516001600160e01b031960e085901b1681526001600160a01b0390921660048301526024820152604401602060405180830381600087803b15801561084457600080fd5b505af1158015610858573d6000803e3d6000fd5b505050506040513d601f19601f8201168201806040525081019061087c9190612a4f565b505050565b60055482146108a25760405162461bcd60e51b815260040161077490612d74565b604080516002808252606082018352600092602083019080368337019050509050600160029054906101000a90046001600160a01b03166001600160a01b031663ad5c46486040518163ffffffff1660e01b815260040160206040518083038186803b15801561091157600080fd5b505afa158015610925573d6000803e3d6000fd5b505050506040513d601f19601f820116820180604052508101906109499190612974565b8160008151811061096a57634e487b7160e01b600052603260045260246000fd5b6001600160a01b0392831660209182029290920101526004548251911690829060019081106109a957634e487b7160e01b600052603260045260246000fd5b6001600160a01b0392831660209182029290920101526001546000916201000090910416637ff36ab5348b85306109e1426032612e7e565b6040518663ffffffff1660e01b8152600401610a009493929190612da1565b6000604051808303818588803b158015610a1957600080fd5b505af1158015610a2d573d6000803e3d6000fd5b50505050506040513d6000823e601f3d908101601f19168201604052610a569190810190612990565b90506000600b54606483600181518110610a8057634e487b7160e01b600052603260045260246000fd5b6020026020010151610a929190612e96565b610a9c9190612eb6565b905060008183600181518110610ac257634e487b7160e01b600052603260045260246000fd5b6020026020010151610ad49190612ed5565b90508060096000828254610ae89190612e7e565b9091555060009050610afa8883612e96565b905060005b89811015610bdd5760008b8b83818110610b2957634e487b7160e01b600052603260045260246000fd5b9050604002016020013583610b3e9190612eb6565b9050600f60405180604001604052808e8e86818110610b6d57634e487b7160e01b600052603260045260246000fd5b610b839260206040909202019081019150612958565b6001600160a01b039081168252602091820194909452825460018082018555600094855293829020835160029092020180546001600160a01b03191691909516178455015191015580610bd581612f33565b915050610aff565b5060008b8152600e60205260409020600f8054610bfb929190612801565b5060408051606081018252338152602081018d815291810184815260088054600180820183556000929092529251600080516020612fde833981519152600390940293840180546001600160a01b0319166001600160a01b039092169190911790559251600080516020612ffe83398151915283015551600080516020612f9e8339815191529091015584518591908110610ca657634e487b7160e01b600052603260045260246000fd5b6020026020010151336001600160a01b0316600080516020612fbe8339815191528d600954600f604051610cdc93929190612e12565b60405180910390a3610cf0600f6000612879565b8515610cfe57610cfe611f33565b505050505050505050505050565b6000818152600d6020526040902054610d675760405162461bcd60e51b815260206004820152601960248201527f596f7520646f6e2774206861766520616e7920636c616d6973000000000000006044820152606401610774565b6003546000828152600d60205260408082205490516227753160e31b8152600481019290925233602483015260448201526001600160a01b039091169063013ba98890606401600060405180830381600087803b158015610dc757600080fd5b505af1158015610ddb573d6000803e3d6000fd5b505050600091825250600d6020526040812055565b600082815260208190526040902060010154610e0b81611f29565b61087c83836123a8565b6002546001600160a01b03163314610e6f5760405162461bcd60e51b815260206004820152601d60248201527f43616c6c6572206973204e6f742061206d61737465722077616c6c65740000006044820152606401610774565b600480546040516370a0823160e01b815230928101929092526001600160a01b031690879082906370a082319060240160206040518083038186803b158015610eb757600080fd5b505afa158015610ecb573d6000803e3d6000fd5b505050506040513d601f19601f82011682018060405250810190610eef9190612ada565b1015610f0d5760405162461bcd60e51b815260040161077490612d3f565b600b54600090610f1e60648a612e96565b610f289190612eb6565b90506000610f36828a612ed5565b90508060096000828254610f4a9190612e7e565b9091555060009050610f5c8683612e96565b905060005b8781101561103f576000898983818110610f8b57634e487b7160e01b600052603260045260246000fd5b9050604002016020013583610fa09190612eb6565b9050600f60405180604001604052808c8c86818110610fcf57634e487b7160e01b600052603260045260246000fd5b610fe59260206040909202019081019150612958565b6001600160a01b039081168252602091820194909452825460018082018555600094855293829020835160029092020180546001600160a01b0319169190951617845501519101558061103781612f33565b915050610f61565b506000898152600e60205260409020600f805461105d929190612801565b506040805160608101825233808252602082018c8152828401868152600880546001810182556000919091529351600080516020612fde833981519152600390950294850180546001600160a01b0319166001600160a01b039092169190911790559051600080516020612ffe83398151915284015551600080516020612f9e8339815191529092019190915560095491518c92600080516020612fbe8339815191529161110f918e91600f90612e12565b60405180910390a3611123600f6000612879565b841561113157611131611f33565b50505050505050505050565b6001600160a01b03811633146111ad5760405162461bcd60e51b815260206004820152602f60248201527f416363657373436f6e74726f6c3a2063616e206f6e6c792072656e6f756e636560448201526e103937b632b9903337b91039b2b63360891b6064820152608401610774565b6111b7828261242c565b5050565b60006111c681611f29565b600380546001600160a01b0319166001600160a01b0384169081179091556040517f07d0f313d785d0a6e19240fc9a591f3d8e79b3c463c30276ea9e7678409ad0f890600090a25050565b6002546001600160a01b0316331461126b5760405162461bcd60e51b815260206004820152601d60248201527f43616c6c6572206973204e6f742061206d61737465722077616c6c65740000006044820152606401610774565b611273611f33565b565b600061128081611f29565b506001600160a01b03166000908152600c60205260409020805460ff19166001179055565b600154610100900460ff16158080156112c257506001805460ff16105b806112db5750303b1580156112db57506001805460ff16145b61133e5760405162461bcd60e51b815260206004820152602e60248201527f496e697469616c697a61626c653a20636f6e747261637420697320616c72656160448201526d191e481a5b9a5d1a585b1a5e995960921b6064820152608401610774565b6001805460ff1916811790558015611360576001805461ff0019166101001790555b61136b600033612491565b60018054757a250d5630b4cf539739df2c5dacb4c659f2488d000062010000600160b01b03199091161790556101f4600655600480546001600160a01b03199081167307865c6e87b9f70255377e024ace6630c1eaa37f179091556005600b556002805490911673896f16dfb69d916aea7315b7455cc7b5a79157c7179055801561142f576001805461ff00191681556040519081527f7f26b83ff96e1f2b6a682f133852f6798a09c465da95921460cefb38474024989060200160405180910390a15b50565b600061143d81611f29565b61142f334761249b565b6000918252602082815260408084206001600160a01b0393909316845291905290205460ff1690565b60055482146114915760405162461bcd60e51b815260040161077490612d74565b600480546040516370a0823160e01b815233928101929092526001600160a01b031690889082906370a082319060240160206040518083038186803b1580156114d957600080fd5b505afa1580156114ed573d6000803e3d6000fd5b505050506040513d601f19601f820116820180604052508101906115119190612ada565b101561152f5760405162461bcd60e51b815260040161077490612d3f565b6040516323b872dd60e01b8152336004820152306024820152604481018990526001600160a01b038216906323b872dd90606401602060405180830381600087803b15801561157d57600080fd5b505af1158015611591573d6000803e3d6000fd5b505050506040513d601f19601f820116820180604052508101906115b59190612a4f565b50600b546000906115c760648b612e96565b6115d19190612eb6565b905060006115df828b612ed5565b905080600960008282546115f39190612e7e565b90915550600090506116058783612e96565b905060005b888110156116e85760008a8a8381811061163457634e487b7160e01b600052603260045260246000fd5b90506040020160200135836116499190612eb6565b9050600f60405180604001604052808d8d8681811061167857634e487b7160e01b600052603260045260246000fd5b61168e9260206040909202019081019150612958565b6001600160a01b039081168252602091820194909452825460018082018555600094855293829020835160029092020180546001600160a01b031916919095161784550151910155806116e081612f33565b91505061160a565b5060008a8152600e60205260409020600f8054611706929190612801565b506040805160608101825233808252602082018d8152828401868152600880546001810182556000919091529351600080516020612fde833981519152600390950294850180546001600160a01b0319166001600160a01b039092169190911790559051600080516020612ffe83398151915284015551600080516020612f9e8339815191529092019190915560095491518d92600080516020612fbe833981519152916117b8918f91600f90612e12565b60405180910390a36117cc600f6000612879565b84156117da576117da611f33565b5050505050505050505050565b60006117f281611f29565b50600b55565b600061180381611f29565b50600280546001600160a01b0319166001600160a01b0392909216919091179055565b60055481146118475760405162461bcd60e51b815260040161077490612d74565b6001600160a01b0386166000908152600c602052604090205460ff166118c15760405162461bcd60e51b815260206004820152602960248201527f5468697320746f6b656e206973206e6f74207265636f676e6973656420666f72604482015268103237b730ba34b7b760b91b6064820152608401610774565b6040516370a0823160e01b8152336004820152869088906001600160a01b038316906370a082319060240160206040518083038186803b15801561190457600080fd5b505afa158015611918573d6000803e3d6000fd5b505050506040513d601f19601f8201168201806040525081019061193c9190612ada565b101561195a5760405162461bcd60e51b815260040161077490612d3f565b604080516002808252606082018352600092602083019080368337019050509050878160008151811061199d57634e487b7160e01b600052603260045260246000fd5b6001600160a01b0392831660209182029290920101526004548251911690829060019081106119dc57634e487b7160e01b600052603260045260246000fd5b6001600160a01b0392831660209182029290920101526040516323b872dd60e01b8152336004820152306024820152604481018b9052908316906323b872dd90606401602060405180830381600087803b158015611a3957600080fd5b505af1158015611a4d573d6000803e3d6000fd5b505050506040513d601f19601f82011682018060405250810190611a719190612a4f565b5060015460405163095ea7b360e01b8152620100009091046001600160a01b039081166004830152602482018b905283169063095ea7b390604401602060405180830381600087803b158015611ac657600080fd5b505af1158015611ada573d6000803e3d6000fd5b505050506040513d601f19601f82011682018060405250810190611afe9190612a4f565b506001546000906201000090046001600160a01b03166338ed17398b600a8530611b29426032612e7e565b6040518663ffffffff1660e01b8152600401611b49959493929190612dd6565b600060405180830381600087803b158015611b6357600080fd5b505af1158015611b77573d6000803e3d6000fd5b505050506040513d6000823e601f3d908101601f19168201604052611b9f9190810190612990565b90506000600b54606483600181518110611bc957634e487b7160e01b600052603260045260246000fd5b6020026020010151611bdb9190612e96565b611be59190612eb6565b905060008183600181518110611c0b57634e487b7160e01b600052603260045260246000fd5b6020026020010151611c1d9190612ed5565b90508060096000828254611c319190612e7e565b9091555060009050611c438883612e96565b905060005b8a811015611d265760008c8c83818110611c7257634e487b7160e01b600052603260045260246000fd5b9050604002016020013583611c879190612eb6565b9050600f60405180604001604052808f8f86818110611cb657634e487b7160e01b600052603260045260246000fd5b611ccc9260206040909202019081019150612958565b6001600160a01b039081168252602091820194909452825460018082018555600094855293829020835160029092020180546001600160a01b03191691909516178455015191015580611d1e81612f33565b915050611c48565b506000898152600e60205260409020600f8054611d44929190612801565b5060408051606081018252338152602081018b815291810184815260088054600180820183556000929092529251600080516020612fde833981519152600390940293840180546001600160a01b0319166001600160a01b039092169190911790559251600080516020612ffe83398151915283015551600080516020612f9e8339815191529091015584518591908110611def57634e487b7160e01b600052603260045260246000fd5b6020026020010151336001600160a01b0316600080516020612fbe8339815191528b600954600f604051611e2593929190612e12565b60405180910390a3611e39600f6000612879565b611e41611f33565b50505050505050505050505050565b60078181548110611e6057600080fd5b60009182526020909120600390910201805460018201546002909201546001600160a01b03909116925083565b600082815260208190526040902060010154611ea881611f29565b61087c838361242c565b60088181548110611e6057600080fd5b6000611ecd81611f29565b50600555565b6000611ede81611f29565b600480546001600160a01b0319166001600160a01b0384169081179091556040517f91d5bf4f9053246e98cdc0e5c39126503cfc274823cb7ec41f5c943cf09b7bc390600090a25050565b61142f81336125b4565b60005b6008548110156121ca57600060088281548110611f6357634e487b7160e01b600052603260045260246000fd5b6000918252602080832060408051606081018252600390940290910180546001600160a01b031684526001810154928401929092526002909101549082015291505b6020808301516000908152600e909152604090205481101561214a576004546020808401516000908152600e9091526040902080546001600160a01b039092169163a9059cbb91908490811061200b57634e487b7160e01b600052603260045260246000fd5b60009182526020808320600290920290910154868201518352600e909152604090912080546001600160a01b03909216918590811061205a57634e487b7160e01b600052603260045260246000fd5b60009182526020909120600160029092020101546040516001600160e01b031960e085901b1681526001600160a01b0390921660048301526024820152604401602060405180830381600087803b1580156120b457600080fd5b505af11580156120c8573d6000803e3d6000fd5b505050506040513d601f19601f820116820180604052508101906120ec9190612a4f565b6121385760405162461bcd60e51b815260206004820152601860248201527f556e61626c6520746f207472616e7366657220746f6b656e00000000000000006044820152606401610774565b8061214281612f33565b915050611fa5565b506040805182516001600160a01b0316815260208084015190820152828201518183015290517f547fbad98eef6ee5afbc1e1c60d04ca06ca6bb3ed4aca121d95b67e15cc8e4f49181900360600190a16020808201516000908152600e909152604081206121b791612879565b50806121c281612f33565b915050611f36565b5060005b600854811015612269576007600882815481106121fb57634e487b7160e01b600052603260045260246000fd5b6000918252602080832084546001818101875595855291909320600392830290930180549190920290920180546001600160a01b0319166001600160a01b0390931692909217825582810154928201929092556002918201549101558061226181612f33565b9150506121ce565b50600480546040516370a0823160e01b815230928101929092526000916001600160a01b03909116906370a082319060240160206040518083038186803b1580156122b357600080fd5b505afa1580156122c7573d6000803e3d6000fd5b505050506040513d601f19601f820116820180604052508101906122eb9190612ada565b6004805460025460405163a9059cbb60e01b81526001600160a01b039182169381019390935260248301849052929350919091169063a9059cbb90604401602060405180830381600087803b15801561234357600080fd5b505af1158015612357573d6000803e3d6000fd5b505050506040513d601f19601f8201168201806040525081019061237b9190612a4f565b50600954600a60008282546123909190612e7e565b90915550506000600981905561142f9060089061289a565b6123b28282611447565b6111b7576000828152602081815260408083206001600160a01b03851684529091529020805460ff191660011790556123e83390565b6001600160a01b0316816001600160a01b0316837f2f8788117e7eff1d82e926ec794901d17c78024a50270940304540a733656f0d60405160405180910390a45050565b6124368282611447565b156111b7576000828152602081815260408083206001600160a01b0385168085529252808320805460ff1916905551339285917ff6391f5c32d9c69d2a47ea670b442974b53935d1edc7fd64eb21e047a839171b9190a45050565b6111b782826123a8565b804710156124eb5760405162461bcd60e51b815260206004820152601d60248201527f416464726573733a20696e73756666696369656e742062616c616e63650000006044820152606401610774565b6000826001600160a01b03168260405160006040518083038185875af1925050503d8060008114612538576040519150601f19603f3d011682016040523d82523d6000602084013e61253d565b606091505b505090508061087c5760405162461bcd60e51b815260206004820152603a60248201527f416464726573733a20756e61626c6520746f2073656e642076616c75652c207260448201527f6563697069656e74206d617920686176652072657665727465640000000000006064820152608401610774565b6125be8282611447565b6111b7576125d6816001600160a01b03166014612618565b6125e1836020612618565b6040516020016125f2929190612c97565b60408051601f198184030181529082905262461bcd60e51b825261077491600401612d0c565b60606000612627836002612eb6565b612632906002612e7e565b67ffffffffffffffff81111561265857634e487b7160e01b600052604160045260246000fd5b6040519080825280601f01601f191660200182016040528015612682576020820181803683370190505b509050600360fc1b816000815181106126ab57634e487b7160e01b600052603260045260246000fd5b60200101906001600160f81b031916908160001a905350600f60fb1b816001815181106126e857634e487b7160e01b600052603260045260246000fd5b60200101906001600160f81b031916908160001a905350600061270c846002612eb6565b612717906001612e7e565b90505b60018111156127ab576f181899199a1a9b1b9c1cb0b131b232b360811b85600f166010811061275957634e487b7160e01b600052603260045260246000fd5b1a60f81b82828151811061277d57634e487b7160e01b600052603260045260246000fd5b60200101906001600160f81b031916908160001a90535060049490941c936127a481612f1c565b905061271a565b5083156127fa5760405162461bcd60e51b815260206004820181905260248201527f537472696e67733a20686578206c656e67746820696e73756666696369656e746044820152606401610774565b9392505050565b8280548282559060005260206000209060020281019282156128695760005260206000209160020282015b8281111561286957825482546001600160a01b0319166001600160a01b03909116178255600180840154908301556002928301929091019061282c565b506128759291506128bb565b5090565b508054600082556002029060005260206000209081019061142f91906128bb565b508054600082556003029060005260206000209081019061142f91906128e1565b5b808211156128755780546001600160a01b0319168155600060018201556002016128bc565b5b808211156128755780546001600160a01b031916815560006001820181905560028201556003016128e2565b60008083601f84011261291f578081fd5b50813567ffffffffffffffff811115612936578182fd5b60208301915083602060408302850101111561295157600080fd5b9250929050565b600060208284031215612969578081fd5b81356127fa81612f7a565b600060208284031215612985578081fd5b81516127fa81612f7a565b600060208083850312156129a2578182fd5b825167ffffffffffffffff808211156129b9578384fd5b818501915085601f8301126129cc578384fd5b8151818111156129de576129de612f64565b838102604051601f19603f83011681018181108582111715612a0257612a02612f64565b604052828152858101935084860182860187018a1015612a20578788fd5b8795505b83861015612a42578051855260019590950194938601938601612a24565b5098975050505050505050565b600060208284031215612a60578081fd5b81516127fa81612f8f565b600060208284031215612a7c578081fd5b5035919050565b60008060408385031215612a95578081fd5b823591506020830135612aa781612f7a565b809150509250929050565b600060208284031215612ac3578081fd5b81356001600160e01b0319811681146127fa578182fd5b600060208284031215612aeb578081fd5b5051919050565b600080600080600080600060c0888a031215612b0c578283fd5b873596506020880135612b1e81612f7a565b9550604088013567ffffffffffffffff811115612b39578384fd5b612b458a828b0161290e565b989b979a50986060810135976080820135975060a09091013595509350505050565b60008060008060008060a08789031215612b7f578182fd5b8635955060208701359450604087013567ffffffffffffffff811115612ba3578283fd5b612baf89828a0161290e565b909550935050606087013591506080870135612bca81612f8f565b809150509295509295509295565b600080600080600080600060c0888a031215612bf2578283fd5b8735965060208801359550604088013567ffffffffffffffff811115612c16578384fd5b612c228a828b0161290e565b909650945050606088013592506080880135915060a0880135612c4481612f8f565b8091505092959891949750929550565b6000815180845260208085019450808401835b83811015612c8c5781516001600160a01b031687529582019590820190600101612c67565b509495945050505050565b60007f416363657373436f6e74726f6c3a206163636f756e742000000000000000000082528351612ccf816017850160208801612eec565b7001034b99036b4b9b9b4b733903937b6329607d1b6017918401918201528351612d00816028840160208801612eec565b01602801949350505050565b6000602082528251806020840152612d2b816040850160208701612eec565b601f01601f19169190910160400192915050565b6020808252818101527f416d6f756e7420746f20646f6e61746520657863656564732062616c616e6365604082015260600190565b6020808252601390820152722ab730baba3437b934bd32b21031b0b63632b960691b604082015260600190565b600085825260806020830152612dba6080830186612c54565b6001600160a01b03949094166040830152506060015292915050565b600086825285602083015260a06040830152612df560a0830186612c54565b6001600160a01b0394909416606083015250608001529392505050565b6000606082018583526020858185015260406060818601528286548085526080870191508786528386209450855b81811015612e6f5785546001600160a01b03168352600186810154868501526002909601959284019201612e40565b50909998505050505050505050565b60008219821115612e9157612e91612f4e565b500190565b600082612eb157634e487b7160e01b81526012600452602481fd5b500490565b6000816000190483118215151615612ed057612ed0612f4e565b500290565b600082821015612ee757612ee7612f4e565b500390565b60005b83811015612f07578181015183820152602001612eef565b83811115612f16576000848401525b50505050565b600081612f2b57612f2b612f4e565b506000190190565b6000600019821415612f4757612f47612f4e565b5060010190565b634e487b7160e01b600052601160045260246000fd5b634e487b7160e01b600052604160045260246000fd5b6001600160a01b038116811461142f57600080fd5b801515811461142f57600080fdfef3f7a9fe364faab93b216da50a3214154f22a0a2b415b23a84c8169e8b636ee579b14f25002a439c35ede54adcc98f0d5e18e59c35b525f5f13bb0d53c43acdef3f7a9fe364faab93b216da50a3214154f22a0a2b415b23a84c8169e8b636ee3f3f7a9fe364faab93b216da50a3214154f22a0a2b415b23a84c8169e8b636ee4a2646970667358221220f9b41850da56f7af77450ca8ef0f69ccb145d9a36ff427a39824a97ec286024864736f6c63430008020033",
  "linkReferences": {},
  "deployedLinkReferences": {}
}