{
  "_format": "hh-sol-artifact-1",
  "contractName": "MaraScan",
  "sourceName": "contracts/MaraScan.sol",
  "abi": [
    {
      "anonymous": false,
      "inputs": [
        {
          "indexed": true,
          "internalType": "address",
          "name": "contractAddress",
          "type": "address"
        }
      ],
      "name": "ApproveToken",
      "type": "event"
    },
    {
      "anonymous": false,
      "inputs": [
        {
          "indexed": true,
          "internalType": "address",
          "name": "newContract",
          "type": "address"
        }
      ],
      "name": "ChangedBadgeContract",
      "type": "event"
    },
    {
      "anonymous": false,
      "inputs": [
        {
          "indexed": true,
          "internalType": "address",
          "name": "newContract",
          "type": "address"
        }
      ],
      "name": "ChangedUSDCContract",
      "type": "event"
    },
    {
      "anonymous": false,
      "inputs": [
        {
          "components": [
            {
              "internalType": "address",
              "name": "donor",
              "type": "address"
            },
            {
              "internalType": "uint256",
              "name": "donationRequestId",
              "type": "uint256"
            },
            {
              "internalType": "uint256",
              "name": "amount",
              "type": "uint256"
            },
            {
              "components": [
                {
                  "internalType": "address[]",
                  "name": "beneficiary",
                  "type": "address[]"
                },
                {
                  "internalType": "uint256[]",
                  "name": "amount",
                  "type": "uint256[]"
                }
              ],
              "internalType": "struct MaraScan.Beneficiary",
              "name": "beneficiaries",
              "type": "tuple"
            }
          ],
          "indexed": false,
          "internalType": "struct MaraScan.Donation",
          "name": "donation",
          "type": "tuple"
        }
      ],
      "name": "Disbursed",
      "type": "event"
    },
    {
      "anonymous": false,
      "inputs": [
        {
          "indexed": true,
          "internalType": "address",
          "name": "donor",
          "type": "address"
        },
        {
          "indexed": true,
          "internalType": "uint256",
          "name": "amount",
          "type": "uint256"
        },
        {
          "indexed": false,
          "internalType": "uint256",
          "name": "donationRequestId",
          "type": "uint256"
        },
        {
          "indexed": false,
          "internalType": "uint256",
          "name": "currentUndisbursedBalance",
          "type": "uint256"
        },
        {
          "components": [
            {
              "internalType": "address[]",
              "name": "beneficiary",
              "type": "address[]"
            },
            {
              "internalType": "uint256[]",
              "name": "amount",
              "type": "uint256[]"
            }
          ],
          "indexed": false,
          "internalType": "struct MaraScan.Beneficiary",
          "name": "benefiaries",
          "type": "tuple"
        }
      ],
      "name": "Donated",
      "type": "event"
    },
    {
      "anonymous": false,
      "inputs": [
        {
          "indexed": false,
          "internalType": "uint8",
          "name": "version",
          "type": "uint8"
        }
      ],
      "name": "Initialized",
      "type": "event"
    },
    {
      "anonymous": false,
      "inputs": [
        {
          "indexed": true,
          "internalType": "bytes32",
          "name": "role",
          "type": "bytes32"
        },
        {
          "indexed": true,
          "internalType": "bytes32",
          "name": "previousAdminRole",
          "type": "bytes32"
        },
        {
          "indexed": true,
          "internalType": "bytes32",
          "name": "newAdminRole",
          "type": "bytes32"
        }
      ],
      "name": "RoleAdminChanged",
      "type": "event"
    },
    {
      "anonymous": false,
      "inputs": [
        {
          "indexed": true,
          "internalType": "bytes32",
          "name": "role",
          "type": "bytes32"
        },
        {
          "indexed": true,
          "internalType": "address",
          "name": "account",
          "type": "address"
        },
        {
          "indexed": true,
          "internalType": "address",
          "name": "sender",
          "type": "address"
        }
      ],
      "name": "RoleGranted",
      "type": "event"
    },
    {
      "anonymous": false,
      "inputs": [
        {
          "indexed": true,
          "internalType": "bytes32",
          "name": "role",
          "type": "bytes32"
        },
        {
          "indexed": true,
          "internalType": "address",
          "name": "account",
          "type": "address"
        },
        {
          "indexed": true,
          "internalType": "address",
          "name": "sender",
          "type": "address"
        }
      ],
      "name": "RoleRevoked",
      "type": "event"
    },
    {
      "inputs": [],
      "name": "ADMIN_ROLE",
      "outputs": [
        {
          "internalType": "bytes32",
          "name": "",
          "type": "bytes32"
        }
      ],
      "stateMutability": "view",
      "type": "function"
    },
    {
      "inputs": [],
      "name": "BADGE",
      "outputs": [
        {
          "internalType": "address",
          "name": "",
          "type": "address"
        }
      ],
      "stateMutability": "view",
      "type": "function"
    },
    {
      "inputs": [],
      "name": "DEFAULT_ADMIN_ROLE",
      "outputs": [
        {
          "internalType": "bytes32",
          "name": "",
          "type": "bytes32"
        }
      ],
      "stateMutability": "view",
      "type": "function"
    },
    {
      "inputs": [],
      "name": "MASTER_WALLET",
      "outputs": [
        {
          "internalType": "address",
          "name": "",
          "type": "address"
        }
      ],
      "stateMutability": "view",
      "type": "function"
    },
    {
      "inputs": [
        {
          "internalType": "uint256",
          "name": "amountOut",
          "type": "uint256"
        },
        {
          "internalType": "address[]",
          "name": "_beneficiaries",
          "type": "address[]"
        },
        {
          "internalType": "uint256[]",
          "name": "_amountPerBeneficiary",
          "type": "uint256[]"
        },
        {
          "internalType": "uint256",
          "name": "_donationRequestId",
          "type": "uint256"
        },
        {
          "internalType": "bool",
          "name": "disburse",
          "type": "bool"
        }
      ],
      "name": "SwapExactETHForTokens",
      "outputs": [],
      "stateMutability": "payable",
      "type": "function"
    },
    {
      "inputs": [],
      "name": "USDC",
      "outputs": [
        {
          "internalType": "address",
          "name": "",
          "type": "address"
        }
      ],
      "stateMutability": "view",
      "type": "function"
    },
    {
      "inputs": [
        {
          "internalType": "uint256",
          "name": "",
          "type": "uint256"
        }
      ],
      "name": "allDisbursedDonations",
      "outputs": [
        {
          "internalType": "address",
          "name": "donor",
          "type": "address"
        },
        {
          "internalType": "uint256",
          "name": "donationRequestId",
          "type": "uint256"
        },
        {
          "internalType": "uint256",
          "name": "amount",
          "type": "uint256"
        },
        {
          "components": [
            {
              "internalType": "address[]",
              "name": "beneficiary",
              "type": "address[]"
            },
            {
              "internalType": "uint256[]",
              "name": "amount",
              "type": "uint256[]"
            }
          ],
          "internalType": "struct MaraScan.Beneficiary",
          "name": "beneficiaries",
          "type": "tuple"
        }
      ],
      "stateMutability": "view",
      "type": "function"
    },
    {
      "inputs": [
        {
          "internalType": "address",
          "name": "_tokenAddress",
          "type": "address"
        }
      ],
      "name": "approveTokenForDonation",
      "outputs": [],
      "stateMutability": "nonpayable",
      "type": "function"
    },
    {
      "inputs": [
        {
          "internalType": "address",
          "name": "",
          "type": "address"
        }
      ],
      "name": "approvedTokens",
      "outputs": [
        {
          "internalType": "bool",
          "name": "",
          "type": "bool"
        }
      ],
      "stateMutability": "view",
      "type": "function"
    },
    {
      "inputs": [
        {
          "internalType": "uint256",
          "name": "donationRequestId",
          "type": "uint256"
        }
      ],
      "name": "claimBadge",
      "outputs": [],
      "stateMutability": "nonpayable",
      "type": "function"
    },
    {
      "inputs": [
        {
          "internalType": "uint256",
          "name": "",
          "type": "uint256"
        }
      ],
      "name": "claimBadgesForDonors",
      "outputs": [
        {
          "internalType": "uint256",
          "name": "",
          "type": "uint256"
        }
      ],
      "stateMutability": "view",
      "type": "function"
    },
    {
      "inputs": [],
      "name": "disburseToken",
      "outputs": [],
      "stateMutability": "nonpayable",
      "type": "function"
    },
    {
      "inputs": [
        {
          "internalType": "address",
          "name": "_tokenAddress",
          "type": "address"
        },
        {
          "internalType": "uint256",
          "name": "_amount",
          "type": "uint256"
        },
        {
          "internalType": "uint256",
          "name": "_donationRequestId",
          "type": "uint256"
        },
        {
          "internalType": "address[]",
          "name": "_beneficiaries",
          "type": "address[]"
        },
        {
          "internalType": "uint256[]",
          "name": "_amountPerBeneficiary",
          "type": "uint256[]"
        },
        {
          "internalType": "bool",
          "name": "disburse",
          "type": "bool"
        }
      ],
      "name": "donate",
      "outputs": [],
      "stateMutability": "nonpayable",
      "type": "function"
    },
    {
      "inputs": [
        {
          "internalType": "uint256",
          "name": "_amount",
          "type": "uint256"
        },
        {
          "internalType": "uint256",
          "name": "_donationRequestId",
          "type": "uint256"
        },
        {
          "internalType": "address[]",
          "name": "_beneficiaries",
          "type": "address[]"
        },
        {
          "internalType": "uint256[]",
          "name": "_amountPerBeneficiary",
          "type": "uint256[]"
        },
        {
          "internalType": "bool",
          "name": "disburse",
          "type": "bool"
        }
      ],
      "name": "donationFromCircle",
      "outputs": [],
      "stateMutability": "nonpayable",
      "type": "function"
    },
    {
      "inputs": [],
      "name": "emergencyWithdrawETH",
      "outputs": [],
      "stateMutability": "nonpayable",
      "type": "function"
    },
    {
      "inputs": [
        {
          "internalType": "address",
          "name": "_tokenAddress",
          "type": "address"
        }
      ],
      "name": "emergencyWithdrawToken",
      "outputs": [],
      "stateMutability": "nonpayable",
      "type": "function"
    },
    {
      "inputs": [
        {
          "internalType": "bytes32",
          "name": "role",
          "type": "bytes32"
        }
      ],
      "name": "getRoleAdmin",
      "outputs": [
        {
          "internalType": "bytes32",
          "name": "",
          "type": "bytes32"
        }
      ],
      "stateMutability": "view",
      "type": "function"
    },
    {
      "inputs": [
        {
          "internalType": "bytes32",
          "name": "role",
          "type": "bytes32"
        },
        {
          "internalType": "address",
          "name": "account",
          "type": "address"
        }
      ],
      "name": "grantRole",
      "outputs": [],
      "stateMutability": "nonpayable",
      "type": "function"
    },
    {
      "inputs": [
        {
          "internalType": "bytes32",
          "name": "role",
          "type": "bytes32"
        },
        {
          "internalType": "address",
          "name": "account",
          "type": "address"
        }
      ],
      "name": "hasRole",
      "outputs": [
        {
          "internalType": "bool",
          "name": "",
          "type": "bool"
        }
      ],
      "stateMutability": "view",
      "type": "function"
    },
    {
      "inputs": [],
      "name": "initialize",
      "outputs": [],
      "stateMutability": "nonpayable",
      "type": "function"
    },
    {
      "inputs": [],
      "name": "minimumAmountToDisburse",
      "outputs": [
        {
          "internalType": "uint256",
          "name": "",
          "type": "uint256"
        }
      ],
      "stateMutability": "view",
      "type": "function"
    },
    {
      "inputs": [
        {
          "internalType": "bytes32",
          "name": "role",
          "type": "bytes32"
        },
        {
          "internalType": "address",
          "name": "account",
          "type": "address"
        }
      ],
      "name": "renounceRole",
      "outputs": [],
      "stateMutability": "nonpayable",
      "type": "function"
    },
    {
      "inputs": [
        {
          "internalType": "bytes32",
          "name": "role",
          "type": "bytes32"
        },
        {
          "internalType": "address",
          "name": "account",
          "type": "address"
        }
      ],
      "name": "revokeRole",
      "outputs": [],
      "stateMutability": "nonpayable",
      "type": "function"
    },
    {
      "inputs": [
        {
          "internalType": "address",
          "name": "_tokenAddress",
          "type": "address"
        }
      ],
      "name": "setBadgeTokenContract",
      "outputs": [],
      "stateMutability": "nonpayable",
      "type": "function"
    },
    {
      "inputs": [
        {
          "internalType": "address",
          "name": "_masterWallet",
          "type": "address"
        }
      ],
      "name": "setMasterWallet",
      "outputs": [],
      "stateMutability": "nonpayable",
      "type": "function"
    },
    {
      "inputs": [
        {
          "internalType": "address",
          "name": "_tokenAddress",
          "type": "address"
        }
      ],
      "name": "setUSDCTokenContract",
      "outputs": [],
      "stateMutability": "nonpayable",
      "type": "function"
    },
    {
      "inputs": [
        {
          "internalType": "bytes4",
          "name": "interfaceId",
          "type": "bytes4"
        }
      ],
      "name": "supportsInterface",
      "outputs": [
        {
          "internalType": "bool",
          "name": "",
          "type": "bool"
        }
      ],
      "stateMutability": "view",
      "type": "function"
    },
    {
      "inputs": [
        {
          "internalType": "uint256",
          "name": "amountIn",
          "type": "uint256"
        },
        {
          "internalType": "uint256",
          "name": "amountOutMin",
          "type": "uint256"
        },
        {
          "internalType": "address",
          "name": "tokenIn",
          "type": "address"
        },
        {
          "internalType": "address[]",
          "name": "_beneficiaries",
          "type": "address[]"
        },
        {
          "internalType": "uint256[]",
          "name": "_amountPerBeneficiary",
          "type": "uint256[]"
        },
        {
          "internalType": "uint256",
          "name": "_donationRequestId",
          "type": "uint256"
        },
        {
          "internalType": "bool",
          "name": "disburse",
          "type": "bool"
        }
      ],
      "name": "swapExactTokensForTokens",
      "outputs": [],
      "stateMutability": "nonpayable",
      "type": "function"
    },
    {
      "inputs": [],
      "name": "totalAmountDisbursed",
      "outputs": [
        {
          "internalType": "uint256",
          "name": "",
          "type": "uint256"
        }
      ],
      "stateMutability": "view",
      "type": "function"
    },
    {
      "inputs": [],
      "name": "unDisbursedAmount",
      "outputs": [
        {
          "internalType": "uint256",
          "name": "",
          "type": "uint256"
        }
      ],
      "stateMutability": "view",
      "type": "function"
    },
    {
      "inputs": [
        {
          "internalType": "uint256",
          "name": "",
          "type": "uint256"
        }
      ],
      "name": "unDisbursedDonations",
      "outputs": [
        {
          "internalType": "address",
          "name": "donor",
          "type": "address"
        },
        {
          "internalType": "uint256",
          "name": "donationRequestId",
          "type": "uint256"
        },
        {
          "internalType": "uint256",
          "name": "amount",
          "type": "uint256"
        },
        {
          "components": [
            {
              "internalType": "address[]",
              "name": "beneficiary",
              "type": "address[]"
            },
            {
              "internalType": "uint256[]",
              "name": "amount",
              "type": "uint256[]"
            }
          ],
          "internalType": "struct MaraScan.Beneficiary",
          "name": "beneficiaries",
          "type": "tuple"
        }
      ],
      "stateMutability": "view",
      "type": "function"
    },
    {
      "inputs": [],
      "name": "uniswapRouter",
      "outputs": [
        {
          "internalType": "contract IUniswapV2Router02",
          "name": "",
          "type": "address"
        }
      ],
      "stateMutability": "view",
      "type": "function"
    }
  ],
  "bytecode": "0x608060405234801561001057600080fd5b506138b6806100206000396000f3fe6080604052600436106101e35760003560e01c80638129fc1c11610102578063a6c7bf8a11610095578063d5d0c6f011610064578063d5d0c6f014610588578063d60bb296146105a8578063eead6fd8146105be578063f28a39d0146105de576101e3565b8063a6c7bf8a146104f8578063a9cf4fcf14610518578063b0583c9414610538578063d547741f14610568576101e3565b806389a30271116100d157806389a30271146104985780638f4542d1146104b857806391d14854146104d8578063a217fddf146103d7576101e3565b80638129fc1c1461042157806382eb73ad1461043657806384536017146104565780638623afef1461046b576101e3565b806336568abe1161017a578063735de9f711610149578063735de9f7146103b157806375b238fc146103d75780637ddef29f146103ec5780637f49a93214610401576101e3565b806336568abe146103215780633c2c4b5e14610341578063656ad723146103615780636d1ea3fa14610381576101e3565b8063248a9ca3116101b6578063248a9ca31461029757806327d9f3a6146102d55780632f2ff15d146102eb578063305c53101461030b576101e3565b806301ffc9a7146101e85780631af032031461021d5780631d527d811461023f5780632341513514610277575b600080fd5b3480156101f457600080fd5b506102086102033660046132c4565b6105f1565b60405190151581526020015b60405180910390f35b34801561022957600080fd5b5061023d6102383660046130c4565b610628565b005b34801561024b57600080fd5b5060035461025f906001600160a01b031681565b6040516001600160a01b039091168152602001610214565b34801561028357600080fd5b5061023d61029236600461327d565b6107f5565b3480156102a357600080fd5b506102c76102b236600461327d565b60009081526020819052604090206001015490565b604051908152602001610214565b3480156102e157600080fd5b506102c760055481565b3480156102f757600080fd5b5061023d610306366004613295565b6108d9565b34801561031757600080fd5b506102c760095481565b34801561032d57600080fd5b5061023d61033c366004613295565b6108fe565b34801561034d57600080fd5b5060025461025f906001600160a01b031681565b34801561036d57600080fd5b5061023d61037c3660046130c4565b61097c565b34801561038d57600080fd5b5061020861039c3660046130c4565b600a6020526000908152604090205460ff1681565b3480156103bd57600080fd5b5060015461025f906201000090046001600160a01b031681565b3480156103e357600080fd5b506102c7600081565b3480156103f857600080fd5b5061023d6109d2565b34801561040d57600080fd5b5061023d61041c3660046130c4565b610e11565b34801561042d57600080fd5b5061023d610e41565b34801561044257600080fd5b5061023d610451366004613398565b610fa7565b34801561046257600080fd5b5061023d611709565b34801561047757600080fd5b506102c761048636600461327d565b600b6020526000908152604090205481565b3480156104a457600080fd5b5060045461025f906001600160a01b031681565b3480156104c457600080fd5b5061023d6104d33660046130fc565b61171e565b3480156104e457600080fd5b506102086104f3366004613295565b611be7565b34801561050457600080fd5b5061023d6105133660046130c4565b611c10565b34801561052457600080fd5b5061023d610533366004613447565b611c3e565b34801561054457600080fd5b5061055861055336600461327d565b6120b7565b60405161021494939291906135e3565b34801561057457600080fd5b5061023d610583366004613295565b6121b7565b34801561059457600080fd5b506105586105a336600461327d565b6121dc565b3480156105b457600080fd5b506102c760085481565b3480156105ca57600080fd5b5061023d6105d93660046130c4565b6121ec565b61023d6105ec366004613304565b612242565b60006001600160e01b03198216637965db0b60e01b148061062257506301ffc9a760e01b6001600160e01b03198316145b92915050565b6000610633816127ac565b6040516370a0823160e01b81523060048201526000906001600160a01b038416906370a082319060240160206040518083038186803b15801561067557600080fd5b505afa158015610689573d6000803e3d6000fd5b505050506040513d601f19601f820116820180604052508101906106ad91906132ec565b116106f15760405162461bcd60e51b815260206004820152600f60248201526e15985b1d59481d1bdbc81cdb585b1b608a1b60448201526064015b60405180910390fd5b6040516370a0823160e01b81523060048201526001600160a01b0383169063a9059cbb90339083906370a082319060240160206040518083038186803b15801561073a57600080fd5b505afa15801561074e573d6000803e3d6000fd5b505050506040513d601f19601f8201168201806040525081019061077291906132ec565b6040516001600160e01b031960e085901b1681526001600160a01b0390921660048301526024820152604401602060405180830381600087803b1580156107b857600080fd5b505af11580156107cc573d6000803e3d6000fd5b505050506040513d601f19601f820116820180604052508101906107f09190613261565b505050565b6000818152600b60205260409020546108505760405162461bcd60e51b815260206004820152601960248201527f596f7520646f6e2774206861766520616e7920636c616d69730000000000000060448201526064016106e8565b6003546000828152600b60205260408082205490516227753160e31b8152600481019290925233602483015260448201526001600160a01b039091169063013ba98890606401600060405180830381600087803b1580156108b057600080fd5b505af11580156108c4573d6000803e3d6000fd5b505050600091825250600b6020526040812055565b6000828152602081905260409020600101546108f4816127ac565b6107f083836127b6565b6001600160a01b038116331461096e5760405162461bcd60e51b815260206004820152602f60248201527f416363657373436f6e74726f6c3a2063616e206f6e6c792072656e6f756e636560448201526e103937b632b9903337b91039b2b63360891b60648201526084016106e8565b610978828261283a565b5050565b6000610987816127ac565b600380546001600160a01b0319166001600160a01b0384169081179091556040517f07d0f313d785d0a6e19240fc9a591f3d8e79b3c463c30276ea9e7678409ad0f890600090a25050565b6002546001600160a01b03163314610a2c5760405162461bcd60e51b815260206004820152601d60248201527f43616c6c6572206973204e6f742061206d61737465722077616c6c657400000060448201526064016106e8565b60005b600654811015610d0e57600060068281548110610a5c57634e487b7160e01b600052603260045260246000fd5b600091825260209182902060408051608081018252600590930290910180546001600160a01b03168352600181015483850152600281015483830152815160038201805495860282016060908101855293820186815294959294848701949293919284928491840182828015610afb57602002820191906000526020600020905b81546001600160a01b03168152600190910190602001808311610add575b5050505050815260200160018201805480602002602001604051908101604052809291908181526020018280548015610b5357602002820191906000526020600020905b815481526020019060010190808311610b3f575b50505050508152505081525050905060005b60608201515151831015610cc35760045460608301515180516001600160a01b039092169163a9059cbb919084908110610baf57634e487b7160e01b600052603260045260246000fd5b60200260200101518460600151602001518481518110610bdf57634e487b7160e01b600052603260045260246000fd5b60200260200101516040518363ffffffff1660e01b8152600401610c189291906001600160a01b03929092168252602082015260400190565b602060405180830381600087803b158015610c3257600080fd5b505af1158015610c46573d6000803e3d6000fd5b505050506040513d601f19601f82011682018060405250810190610c6a9190613261565b610cb15760405162461bcd60e51b81526020600482015260186024820152772ab730b13632903a37903a3930b739b332b9103a37b5b2b760411b60448201526064016106e8565b82610cbb816137f6565b935050610b65565b507f8c925ec60e43807144213185d764c1b6a2ec660b76cc8f9e5d67e6711866f44081604051610cf39190613696565b60405180910390a15080610d06816137f6565b915050610a2f565b5060005b600654811015610de257600760068281548110610d3f57634e487b7160e01b600052603260045260246000fd5b6000918252602080832084546001818101875595855291909320600592830290930180549190920290920180546001600160a01b0319166001600160a01b03909316929092178255828101549282019290925560028083015490820155600380830180549091830190610db59082908490612ef9565b5060018281018054610dca9284019190612ef9565b50505050508080610dda906137f6565b915050610d12565b5060085460096000828254610df79190613778565b909155505060006008819055610e0f90600690612f49565b565b6000610e1c816127ac565b506001600160a01b03166000908152600a60205260409020805460ff19166001179055565b600154610100900460ff1615808015610e5e57506001805460ff16105b80610e775750303b158015610e7757506001805460ff16145b610eda5760405162461bcd60e51b815260206004820152602e60248201527f496e697469616c697a61626c653a20636f6e747261637420697320616c72656160448201526d191e481a5b9a5d1a585b1a5e995960921b60648201526084016106e8565b6001805460ff1916811790558015610efc576001805461ff0019166101001790555b610f0760003361289f565b60018054757a250d5630b4cf539739df2c5dacb4c659f2488d000062010000600160b01b03199091161790556101f4600555600480546001600160a01b0319167307865c6e87b9f70255377e024ace6630c1eaa37f1790558015610fa4576001805461ff00191681556040519081527f7f26b83ff96e1f2b6a682f133852f6798a09c465da95921460cefb38474024989060200160405180910390a15b50565b6001600160a01b0387166000908152600a602052604090205460ff16610fdf5760405162461bcd60e51b81526004016106e89061364d565b6040516370a0823160e01b815233600482015287908a906001600160a01b038316906370a082319060240160206040518083038186803b15801561102257600080fd5b505afa158015611036573d6000803e3d6000fd5b505050506040513d601f19601f8201168201806040525081019061105a91906132ec565b10156110a85760405162461bcd60e51b815260206004820181905260248201527f416d6f756e7420746f20646f6e61746520657863656564732062616c616e636560448201526064016106e8565b60408051600280825260608201835260009260208301908036833701905050905088816000815181106110eb57634e487b7160e01b600052603260045260246000fd5b6001600160a01b03928316602091820292909201015260045482519116908290600190811061112a57634e487b7160e01b600052603260045260246000fd5b6001600160a01b0392831660209182029290920101526040516323b872dd60e01b8152336004820152306024820152604481018d9052908316906323b872dd90606401602060405180830381600087803b15801561118757600080fd5b505af115801561119b573d6000803e3d6000fd5b505050506040513d601f19601f820116820180604052508101906111bf9190613261565b5060015460405163095ea7b360e01b8152620100009091046001600160a01b039081166004830152602482018d905283169063095ea7b390604401602060405180830381600087803b15801561121457600080fd5b505af1158015611228573d6000803e3d6000fd5b505050506040513d601f19601f8201168201806040525081019061124c9190613261565b506001546000906201000090046001600160a01b03166338ed17398d8d8530611276426032613778565b6040518663ffffffff1660e01b8152600401611296959493929190613714565b600060405180830381600087803b1580156112b057600080fd5b505af11580156112c4573d6000803e3d6000fd5b505050506040513d6000823e601f3d908101601f191682016040526112ec91908101906131a2565b90508060018151811061130f57634e487b7160e01b600052603260045260246000fd5b6020026020010151600860008282546113289190613778565b925050819055508060018151811061135057634e487b7160e01b600052603260045260246000fd5b6020026020010151600860008282546113699190613778565b9250508190555060066040518060800160405280336001600160a01b03168152602001878152602001836001815181106113b357634e487b7160e01b600052603260045260246000fd5b6020026020010151815260200160405180604001604052808d8d808060200260200160405190810160405280939291908181526020018383602002808284376000920191909152505050908252506040805160208d810282810182019093528d82529283019290918e918e918291850190849080828437600092018290525093909452505091909252835460018082018655948252602091829020845160059092020180546001600160a01b0319166001600160a01b0390921691909117815583820151948101949094556040830151600285015560608301518051805194959491935060038501926114ab92849290910190612f6a565b5060208281015180516114c49260018501920190612fbf565b5050505050806001815181106114ea57634e487b7160e01b600052603260045260246000fd5b6020026020010151336001600160a01b03166000805160206138618339815191528760085460405180604001604052808f8f80806020026020016040519081016040528093929190818152602001838360200280828437600081840152601f19601f8201169050808301925050505050505081526020018d8d8080602002602001604051908101604052809392919081815260200183836020028082843760009201919091525050509152506040516115a593929190613750565b60405180910390a383156116fb576116fb6006805480602002602001604051908101604052809291908181526020016000905b828210156116f2576000848152602090819020604080516080810182526005860290920180546001600160a01b0316835260018101548385015260028101548383015281516003820180549586028201606090810185529382018681529495929484870194929391928492849184018282801561167e57602002820191906000526020600020905b81546001600160a01b03168152600190910190602001808311611660575b50505050508152602001600182018054806020026020016040519081016040528092919081815260200182805480156116d657602002820191906000526020600020905b8154815260200190600101908083116116c2575b50505050508152505081525050815260200190600101906115d8565b505050506128a9565b505050505050505050505050565b6000611714816127ac565b610fa43347612b93565b6004546001600160a01b0389811691161461174b5760405162461bcd60e51b81526004016106e89061364d565b600480546040516370a0823160e01b815233928101929092526001600160a01b031690889082906370a082319060240160206040518083038186803b15801561179357600080fd5b505afa1580156117a7573d6000803e3d6000fd5b505050506040513d601f19601f820116820180604052508101906117cb91906132ec565b10156118195760405162461bcd60e51b815260206004820181905260248201527f416d6f756e7420746f20646f6e61746520657863656564732062616c616e636560448201526064016106e8565b6040516323b872dd60e01b8152336004820152306024820152604481018990526001600160a01b038216906323b872dd90606401602060405180830381600087803b15801561186757600080fd5b505af115801561187b573d6000803e3d6000fd5b505050506040513d601f19601f8201168201806040525081019061189f9190613261565b5087600860008282546118b29190613778565b9250508190555060066040518060800160405280336001600160a01b031681526020018981526020018a815260200160405180604001604052808a8a808060200260200160405190810160405280939291908181526020018383602002808284376000920191909152505050908252506040805160208a810282810182019093528a82529283019290918b918b918291850190849080828437600092018290525093909452505091909252835460018082018655948252602091829020845160059092020180546001600160a01b0319166001600160a01b0390921691909117815583820151948101949094556040830151600285015560608301518051805194959491935060038501926119cc92849290910190612f6a565b5060208281015180516119e59260018501920190612fbf565b505050505087336001600160a01b03166000805160206138618339815191528960085460405180604001604052808c8c808060200260200160405190810160405280939291908181526020018383602002808284376000920191909152505050908252506040805160208c810282810182019093528c82529283019290918d918d9182918501908490808284376000920191909152505050915250604051611a8f93929190613750565b60405180910390a38115611bdc57611bdc6006805480602002602001604051908101604052809291908181526020016000905b828210156116f2576000848152602090819020604080516080810182526005860290920180546001600160a01b03168352600181015483850152600281015483830152815160038201805495860282016060908101855293820186815294959294848701949293919284928491840182828015611b6857602002820191906000526020600020905b81546001600160a01b03168152600190910190602001808311611b4a575b5050505050815260200160018201805480602002602001604051908101604052809291908181526020018280548015611bc057602002820191906000526020600020905b815481526020019060010190808311611bac575b5050505050815250508152505081526020019060010190611ac2565b505050505050505050565b6000918252602082815260408084206001600160a01b0393909316845291905290205460ff1690565b6000611c1b816127ac565b50600280546001600160a01b0319166001600160a01b0392909216919091179055565b6002546001600160a01b03163314611c985760405162461bcd60e51b815260206004820152601d60248201527f43616c6c6572206973204e6f742061206d61737465722077616c6c657400000060448201526064016106e8565b600480546040516370a0823160e01b815230928101929092526001600160a01b031690889082906370a082319060240160206040518083038186803b158015611ce057600080fd5b505afa158015611cf4573d6000803e3d6000fd5b505050506040513d601f19601f82011682018060405250810190611d1891906132ec565b1015611d715760405162461bcd60e51b815260206004820152602260248201527f416d6f756e7420746f20646973627572736520657863656564732062616c616e604482015261636560f01b60648201526084016106e8565b8760086000828254611d839190613778565b9250508190555060066040518060800160405280336001600160a01b031681526020018981526020018a815260200160405180604001604052808a8a808060200260200160405190810160405280939291908181526020018383602002808284376000920191909152505050908252506040805160208a810282810182019093528a82529283019290918b918b918291850190849080828437600092018290525093909452505091909252835460018082018655948252602091829020845160059092020180546001600160a01b0319166001600160a01b039092169190911781558382015194810194909455604083015160028501556060830151805180519495949193506003850192611e9d92849290910190612f6a565b506020828101518051611eb69260018501920190612fbf565b505050505087336001600160a01b03166000805160206138618339815191528960085460405180604001604052808c8c808060200260200160405190810160405280939291908181526020018383602002808284376000920191909152505050908252506040805160208c810282810182019093528c82529283019290918d918d9182918501908490808284376000920191909152505050915250604051611f6093929190613750565b60405180910390a381156120ad576120ad6006805480602002602001604051908101604052809291908181526020016000905b828210156116f2576000848152602090819020604080516080810182526005860290920180546001600160a01b0316835260018101548385015260028101548383015281516003820180549586028201606090810185529382018681529495929484870194929391928492849184018282801561203957602002820191906000526020600020905b81546001600160a01b0316815260019091019060200180831161201b575b505050505081526020016001820180548060200260200160405190810160405280929190818152602001828054801561209157602002820191906000526020600020905b81548152602001906001019080831161207d575b5050505050815250508152505081526020019060010190611f93565b5050505050505050565b600781815481106120c757600080fd5b60009182526020918290206005909102018054600182015460028301546040805160038601805460609881028301890184529282018381526001600160a01b03909616985093969295949093928492849184018282801561215157602002820191906000526020600020905b81546001600160a01b03168152600190910190602001808311612133575b50505050508152602001600182018054806020026020016040519081016040528092919081815260200182805480156121a957602002820191906000526020600020905b815481526020019060010190808311612195575b505050505081525050905084565b6000828152602081905260409020600101546121d2816127ac565b6107f0838361283a565b600681815481106120c757600080fd5b60006121f7816127ac565b600480546001600160a01b0319166001600160a01b0384169081179091556040517f91d5bf4f9053246e98cdc0e5c39126503cfc274823cb7ec41f5c943cf09b7bc390600090a25050565b604080516002808252606082018352600092602083019080368337019050509050600160029054906101000a90046001600160a01b03166001600160a01b031663ad5c46486040518163ffffffff1660e01b815260040160206040518083038186803b1580156122b157600080fd5b505afa1580156122c5573d6000803e3d6000fd5b505050506040513d601f19601f820116820180604052508101906122e991906130e0565b8160008151811061230a57634e487b7160e01b600052603260045260246000fd5b6001600160a01b03928316602091820292909201015260045482519116908290600190811061234957634e487b7160e01b600052603260045260246000fd5b6001600160a01b0392831660209182029290920101526001546000916201000090910416637ff36ab5348b8530612381426032613778565b6040518663ffffffff1660e01b81526004016123a094939291906136df565b6000604051808303818588803b1580156123b957600080fd5b505af11580156123cd573d6000803e3d6000fd5b50505050506040513d6000823e601f3d908101601f191682016040526123f691908101906131a2565b90508060018151811061241957634e487b7160e01b600052603260045260246000fd5b6020026020010151600860008282546124329190613778565b9250508190555060066040518060800160405280336001600160a01b031681526020018681526020018360018151811061247c57634e487b7160e01b600052603260045260246000fd5b6020026020010151815260200160405180604001604052808c8c808060200260200160405190810160405280939291908181526020018383602002808284376000920191909152505050908252506040805160208c810282810182019093528c82529283019290918d918d918291850190849080828437600092018290525093909452505091909252835460018082018655948252602091829020845160059092020180546001600160a01b0319166001600160a01b03909216919091178155838201519481019490945560408301516002850155606083015180518051949594919350600385019261257492849290910190612f6a565b50602082810151805161258d9260018501920190612fbf565b5050505050806001815181106125b357634e487b7160e01b600052603260045260246000fd5b6020026020010151336001600160a01b03166000805160206138618339815191528660085460405180604001604052808e8e808060200260200160405190810160405280939291908181526020018383602002808284376000920191909152505050908252506040805160208e810282810182019093528e82529283019290918f918f918291850190849080828437600092019190915250505091525060405161265f93929190613750565b60405180910390a38215611bdc57611bdc6006805480602002602001604051908101604052809291908181526020016000905b828210156116f2576000848152602090819020604080516080810182526005860290920180546001600160a01b0316835260018101548385015260028101548383015281516003820180549586028201606090810185529382018681529495929484870194929391928492849184018282801561273857602002820191906000526020600020905b81546001600160a01b0316815260019091019060200180831161271a575b505050505081526020016001820180548060200260200160405190810160405280929190818152602001828054801561279057602002820191906000526020600020905b81548152602001906001019080831161277c575b5050505050815250508152505081526020019060010190612692565b610fa48133612cac565b6127c08282611be7565b610978576000828152602081815260408083206001600160a01b03851684529091529020805460ff191660011790556127f63390565b6001600160a01b0316816001600160a01b0316837f2f8788117e7eff1d82e926ec794901d17c78024a50270940304540a733656f0d60405160405180910390a45050565b6128448282611be7565b15610978576000828152602081815260408083206001600160a01b0385168085529252808320805460ff1916905551339285917ff6391f5c32d9c69d2a47ea670b442974b53935d1edc7fd64eb21e047a839171b9190a45050565b61097882826127b6565b60005b8151811015612a8d5760008282815181106128d757634e487b7160e01b600052603260045260246000fd5b6020026020010151905060005b60608201515151831015612a425760045460608301515180516001600160a01b039092169163a9059cbb91908490811061292e57634e487b7160e01b600052603260045260246000fd5b6020026020010151846060015160200151848151811061295e57634e487b7160e01b600052603260045260246000fd5b60200260200101516040518363ffffffff1660e01b81526004016129979291906001600160a01b03929092168252602082015260400190565b602060405180830381600087803b1580156129b157600080fd5b505af11580156129c5573d6000803e3d6000fd5b505050506040513d601f19601f820116820180604052508101906129e99190613261565b612a305760405162461bcd60e51b81526020600482015260186024820152772ab730b13632903a37903a3930b739b332b9103a37b5b2b760411b60448201526064016106e8565b82612a3a816137f6565b9350506128e4565b507f8c925ec60e43807144213185d764c1b6a2ec660b76cc8f9e5d67e6711866f44081604051612a729190613696565b60405180910390a15080612a85816137f6565b9150506128ac565b5060005b8151811015612b66576007828281518110612abc57634e487b7160e01b600052603260045260246000fd5b602090810291909101810151825460018082018555600094855293839020825160059092020180546001600160a01b0319166001600160a01b0390921691909117815581830151938101939093556040810151600284015560608101518051805192949391926003850192612b35928492910190612f6a565b506020828101518051612b4e9260018501920190612fbf565b50505050508080612b5e906137f6565b915050612a91565b5060085460096000828254612b7b9190613778565b909155505060006008819055610fa490600690612f49565b80471015612be35760405162461bcd60e51b815260206004820152601d60248201527f416464726573733a20696e73756666696369656e742062616c616e636500000060448201526064016106e8565b6000826001600160a01b03168260405160006040518083038185875af1925050503d8060008114612c30576040519150601f19603f3d011682016040523d82523d6000602084013e612c35565b606091505b50509050806107f05760405162461bcd60e51b815260206004820152603a60248201527f416464726573733a20756e61626c6520746f2073656e642076616c75652c207260448201527f6563697069656e74206d6179206861766520726576657274656400000000000060648201526084016106e8565b612cb68282611be7565b61097857612cce816001600160a01b03166014612d10565b612cd9836020612d10565b604051602001612cea92919061356e565b60408051601f198184030181529082905262461bcd60e51b82526106e89160040161361a565b60606000612d1f836002613790565b612d2a906002613778565b67ffffffffffffffff811115612d5057634e487b7160e01b600052604160045260246000fd5b6040519080825280601f01601f191660200182016040528015612d7a576020820181803683370190505b509050600360fc1b81600081518110612da357634e487b7160e01b600052603260045260246000fd5b60200101906001600160f81b031916908160001a905350600f60fb1b81600181518110612de057634e487b7160e01b600052603260045260246000fd5b60200101906001600160f81b031916908160001a9053506000612e04846002613790565b612e0f906001613778565b90505b6001811115612ea3576f181899199a1a9b1b9c1cb0b131b232b360811b85600f1660108110612e5157634e487b7160e01b600052603260045260246000fd5b1a60f81b828281518110612e7557634e487b7160e01b600052603260045260246000fd5b60200101906001600160f81b031916908160001a90535060049490941c93612e9c816137df565b9050612e12565b508315612ef25760405162461bcd60e51b815260206004820181905260248201527f537472696e67733a20686578206c656e67746820696e73756666696369656e7460448201526064016106e8565b9392505050565b828054828255906000526020600020908101928215612f395760005260206000209182015b82811115612f39578254825591600101919060010190612f1e565b50612f45929150612ffa565b5090565b5080546000825560050290600052602060002090810190610fa4919061300f565b828054828255906000526020600020908101928215612f39579160200282015b82811115612f3957825182546001600160a01b0319166001600160a01b03909116178255602090920191600190910190612f8a565b828054828255906000526020600020908101928215612f39579160200282015b82811115612f39578251825591602001919060010190612fdf565b5b80821115612f455760008155600101612ffb565b80821115612f455780546001600160a01b0319168155600060018201819055600282018190556003820181613044828261305d565b61305260018301600061305d565b50505060050161300f565b5080546000825590600052602060002090810190610fa49190612ffa565b60008083601f84011261308c578081fd5b50813567ffffffffffffffff8111156130a3578182fd5b60208301915083602080830285010111156130bd57600080fd5b9250929050565b6000602082840312156130d5578081fd5b8135612ef28161383d565b6000602082840312156130f1578081fd5b8151612ef28161383d565b60008060008060008060008060c0898b031215613117578384fd5b88356131228161383d565b97506020890135965060408901359550606089013567ffffffffffffffff8082111561314c578586fd5b6131588c838d0161307b565b909750955060808b0135915080821115613170578485fd5b5061317d8b828c0161307b565b90945092505060a089013561319181613852565b809150509295985092959890939650565b600060208083850312156131b4578182fd5b825167ffffffffffffffff808211156131cb578384fd5b818501915085601f8301126131de578384fd5b8151818111156131f0576131f0613827565b838102604051601f19603f8301168101818110858211171561321457613214613827565b604052828152858101935084860182860187018a1015613232578788fd5b8795505b83861015613254578051855260019590950194938601938601613236565b5098975050505050505050565b600060208284031215613272578081fd5b8151612ef281613852565b60006020828403121561328e578081fd5b5035919050565b600080604083850312156132a7578182fd5b8235915060208301356132b98161383d565b809150509250929050565b6000602082840312156132d5578081fd5b81356001600160e01b031981168114612ef2578182fd5b6000602082840312156132fd578081fd5b5051919050565b600080600080600080600060a0888a03121561331e578283fd5b87359650602088013567ffffffffffffffff8082111561333c578485fd5b6133488b838c0161307b565b909850965060408a0135915080821115613360578485fd5b5061336d8a828b0161307b565b90955093505060608801359150608088013561338881613852565b8091505092959891949750929550565b600080600080600080600080600060e08a8c0312156133b5578283fd5b8935985060208a0135975060408a01356133ce8161383d565b965060608a013567ffffffffffffffff808211156133ea578485fd5b6133f68d838e0161307b565b909850965060808c013591508082111561340e578485fd5b5061341b8c828d0161307b565b90955093505060a08a0135915060c08a013561343681613852565b809150509295985092959850929598565b600080600080600080600060a0888a031215613461578081fd5b8735965060208801359550604088013567ffffffffffffffff80821115613486578283fd5b6134928b838c0161307b565b909750955060608a01359150808211156134aa578283fd5b506134b78a828b0161307b565b909450925050608088013561338881613852565b6000815180845260208085019450808401835b838110156135035781516001600160a01b0316875295820195908201906001016134de565b509495945050505050565b600081516040845261352360408501826134cb565b602084810151868303878301528051808452908201935090918491908301905b808310156135635784518252938301936001929092019190830190613543565b509695505050505050565b60007f416363657373436f6e74726f6c3a206163636f756e7420000000000000000000825283516135a68160178501602088016137af565b7001034b99036b4b9b9b4b733903937b6329607d1b60179184019182015283516135d78160288401602088016137af565b01602801949350505050565b600060018060a01b038616825284602083015283604083015260806060830152613610608083018461350e565b9695505050505050565b60006020825282518060208401526136398160408501602087016137af565b601f01601f19169190910160400192915050565b60208082526029908201527f5468697320746f6b656e206973206e6f74207265636f676e6973656420666f72604082015268103237b730ba34b7b760b91b606082015260800190565b60006020825260018060a01b038351166020830152602083015160408301526040830151606083015260608301516080808401526136d760a084018261350e565b949350505050565b6000858252608060208301526136f860808301866134cb565b6001600160a01b03949094166040830152506060015292915050565b600086825285602083015260a0604083015261373360a08301866134cb565b6001600160a01b0394909416606083015250608001529392505050565b60008482528360208301526060604083015261376f606083018461350e565b95945050505050565b6000821982111561378b5761378b613811565b500190565b60008160001904831182151516156137aa576137aa613811565b500290565b60005b838110156137ca5781810151838201526020016137b2565b838111156137d9576000848401525b50505050565b6000816137ee576137ee613811565b506000190190565b600060001982141561380a5761380a613811565b5060010190565b634e487b7160e01b600052601160045260246000fd5b634e487b7160e01b600052604160045260246000fd5b6001600160a01b0381168114610fa457600080fd5b8015158114610fa457600080fdfed0097d85fe35a9792e55714393d1c9682c3c0c6a481767ad597af1b56ce1d4e7a26469706673582212204ec9bbb9fff17394b1d6e3e807b68f3cc778b0155391c329caa8ca604f69542864736f6c63430008020033",
  "linkReferences": {},
  "deployedLinkReferences": {}
}